{
  "contractName": "ERC777",
  "abi": [
    {
      "inputs": [
        {
          "internalType": "string",
          "name": "name_",
          "type": "string"
        },
        {
          "internalType": "string",
          "name": "symbol_",
          "type": "string"
        },
        {
          "internalType": "address[]",
          "name": "defaultOperators_",
          "type": "address[]"
        }
      ],
      "stateMutability": "nonpayable",
      "type": "constructor"
    },
    {
      "anonymous": false,
      "inputs": [
        {
          "indexed": true,
          "internalType": "address",
          "name": "owner",
          "type": "address"
        },
        {
          "indexed": true,
          "internalType": "address",
          "name": "spender",
          "type": "address"
        },
        {
          "indexed": false,
          "internalType": "uint256",
          "name": "value",
          "type": "uint256"
        }
      ],
      "name": "Approval",
      "type": "event"
    },
    {
      "anonymous": false,
      "inputs": [
        {
          "indexed": true,
          "internalType": "address",
          "name": "operator",
          "type": "address"
        },
        {
          "indexed": true,
          "internalType": "address",
          "name": "tokenHolder",
          "type": "address"
        }
      ],
      "name": "AuthorizedOperator",
      "type": "event"
    },
    {
      "anonymous": false,
      "inputs": [
        {
          "indexed": true,
          "internalType": "address",
          "name": "operator",
          "type": "address"
        },
        {
          "indexed": true,
          "internalType": "address",
          "name": "from",
          "type": "address"
        },
        {
          "indexed": false,
          "internalType": "uint256",
          "name": "amount",
          "type": "uint256"
        },
        {
          "indexed": false,
          "internalType": "bytes",
          "name": "data",
          "type": "bytes"
        },
        {
          "indexed": false,
          "internalType": "bytes",
          "name": "operatorData",
          "type": "bytes"
        }
      ],
      "name": "Burned",
      "type": "event"
    },
    {
      "anonymous": false,
      "inputs": [
        {
          "indexed": true,
          "internalType": "address",
          "name": "operator",
          "type": "address"
        },
        {
          "indexed": true,
          "internalType": "address",
          "name": "to",
          "type": "address"
        },
        {
          "indexed": false,
          "internalType": "uint256",
          "name": "amount",
          "type": "uint256"
        },
        {
          "indexed": false,
          "internalType": "bytes",
          "name": "data",
          "type": "bytes"
        },
        {
          "indexed": false,
          "internalType": "bytes",
          "name": "operatorData",
          "type": "bytes"
        }
      ],
      "name": "Minted",
      "type": "event"
    },
    {
      "anonymous": false,
      "inputs": [
        {
          "indexed": true,
          "internalType": "address",
          "name": "previousOwner",
          "type": "address"
        },
        {
          "indexed": true,
          "internalType": "address",
          "name": "newOwner",
          "type": "address"
        }
      ],
      "name": "OwnershipTransferred",
      "type": "event"
    },
    {
      "anonymous": false,
      "inputs": [
        {
          "indexed": true,
          "internalType": "address",
          "name": "operator",
          "type": "address"
        },
        {
          "indexed": true,
          "internalType": "address",
          "name": "tokenHolder",
          "type": "address"
        }
      ],
      "name": "RevokedOperator",
      "type": "event"
    },
    {
      "anonymous": false,
      "inputs": [
        {
          "indexed": true,
          "internalType": "address",
          "name": "operator",
          "type": "address"
        },
        {
          "indexed": true,
          "internalType": "address",
          "name": "from",
          "type": "address"
        },
        {
          "indexed": true,
          "internalType": "address",
          "name": "to",
          "type": "address"
        },
        {
          "indexed": false,
          "internalType": "uint256",
          "name": "amount",
          "type": "uint256"
        },
        {
          "indexed": false,
          "internalType": "bytes",
          "name": "data",
          "type": "bytes"
        },
        {
          "indexed": false,
          "internalType": "bytes",
          "name": "operatorData",
          "type": "bytes"
        }
      ],
      "name": "Sent",
      "type": "event"
    },
    {
      "anonymous": false,
      "inputs": [
        {
          "indexed": false,
          "internalType": "uint256",
          "name": "id",
          "type": "uint256"
        }
      ],
      "name": "Snapshot",
      "type": "event"
    },
    {
      "anonymous": false,
      "inputs": [
        {
          "indexed": true,
          "internalType": "address",
          "name": "from",
          "type": "address"
        },
        {
          "indexed": true,
          "internalType": "address",
          "name": "to",
          "type": "address"
        },
        {
          "indexed": false,
          "internalType": "uint256",
          "name": "value",
          "type": "uint256"
        }
      ],
      "name": "Transfer",
      "type": "event"
    },
    {
      "inputs": [],
      "name": "owner",
      "outputs": [
        {
          "internalType": "address",
          "name": "",
          "type": "address"
        }
      ],
      "stateMutability": "view",
      "type": "function"
    },
    {
      "inputs": [],
      "name": "renounceOwnership",
      "outputs": [],
      "stateMutability": "nonpayable",
      "type": "function"
    },
    {
      "inputs": [
        {
          "internalType": "address",
          "name": "newOwner",
          "type": "address"
        }
      ],
      "name": "transferOwnership",
      "outputs": [],
      "stateMutability": "nonpayable",
      "type": "function"
    },
    {
      "inputs": [],
      "name": "name",
      "outputs": [
        {
          "internalType": "string",
          "name": "",
          "type": "string"
        }
      ],
      "stateMutability": "view",
      "type": "function"
    },
    {
      "inputs": [],
      "name": "symbol",
      "outputs": [
        {
          "internalType": "string",
          "name": "",
          "type": "string"
        }
      ],
      "stateMutability": "view",
      "type": "function"
    },
    {
      "inputs": [],
      "name": "decimals",
      "outputs": [
        {
          "internalType": "uint8",
          "name": "",
          "type": "uint8"
        }
      ],
      "stateMutability": "pure",
      "type": "function"
    },
    {
      "inputs": [],
      "name": "granularity",
      "outputs": [
        {
          "internalType": "uint256",
          "name": "",
          "type": "uint256"
        }
      ],
      "stateMutability": "view",
      "type": "function"
    },
    {
      "inputs": [],
      "name": "totalSupply",
      "outputs": [
        {
          "internalType": "uint256",
          "name": "",
          "type": "uint256"
        }
      ],
      "stateMutability": "view",
      "type": "function"
    },
    {
      "inputs": [
        {
          "internalType": "address",
          "name": "tokenHolder",
          "type": "address"
        }
      ],
      "name": "balanceOf",
      "outputs": [
        {
          "internalType": "uint256",
          "name": "",
          "type": "uint256"
        }
      ],
      "stateMutability": "view",
      "type": "function"
    },
    {
      "inputs": [],
      "name": "snapshot",
      "outputs": [],
      "stateMutability": "nonpayable",
      "type": "function"
    },
    {
      "inputs": [
        {
          "internalType": "address",
          "name": "account",
          "type": "address"
        },
        {
          "internalType": "uint256",
          "name": "snapshotId",
          "type": "uint256"
        }
      ],
      "name": "balanceOfAt",
      "outputs": [
        {
          "internalType": "uint256",
          "name": "",
          "type": "uint256"
        }
      ],
      "stateMutability": "view",
      "type": "function"
    },
    {
      "inputs": [
        {
          "internalType": "uint256",
          "name": "snapshotId",
          "type": "uint256"
        }
      ],
      "name": "totalSupplyAt",
      "outputs": [
        {
          "internalType": "uint256",
          "name": "",
          "type": "uint256"
        }
      ],
      "stateMutability": "view",
      "type": "function"
    },
    {
      "inputs": [
        {
          "internalType": "address",
          "name": "recipient",
          "type": "address"
        },
        {
          "internalType": "uint256",
          "name": "amount",
          "type": "uint256"
        },
        {
          "internalType": "bytes",
          "name": "data",
          "type": "bytes"
        }
      ],
      "name": "send",
      "outputs": [],
      "stateMutability": "nonpayable",
      "type": "function"
    },
    {
      "inputs": [
        {
          "internalType": "address",
          "name": "recipient",
          "type": "address"
        },
        {
          "internalType": "uint256",
          "name": "amount",
          "type": "uint256"
        }
      ],
      "name": "transfer",
      "outputs": [
        {
          "internalType": "bool",
          "name": "",
          "type": "bool"
        }
      ],
      "stateMutability": "nonpayable",
      "type": "function"
    },
    {
      "inputs": [
        {
          "internalType": "uint256",
          "name": "amount",
          "type": "uint256"
        },
        {
          "internalType": "bytes",
          "name": "data",
          "type": "bytes"
        }
      ],
      "name": "burn",
      "outputs": [],
      "stateMutability": "nonpayable",
      "type": "function"
    },
    {
      "inputs": [
        {
          "internalType": "address",
          "name": "operator",
          "type": "address"
        },
        {
          "internalType": "address",
          "name": "tokenHolder",
          "type": "address"
        }
      ],
      "name": "isOperatorFor",
      "outputs": [
        {
          "internalType": "bool",
          "name": "",
          "type": "bool"
        }
      ],
      "stateMutability": "view",
      "type": "function"
    },
    {
      "inputs": [
        {
          "internalType": "address",
          "name": "operator",
          "type": "address"
        }
      ],
      "name": "authorizeOperator",
      "outputs": [],
      "stateMutability": "nonpayable",
      "type": "function"
    },
    {
      "inputs": [
        {
          "internalType": "address",
          "name": "operator",
          "type": "address"
        }
      ],
      "name": "revokeOperator",
      "outputs": [],
      "stateMutability": "nonpayable",
      "type": "function"
    },
    {
      "inputs": [],
      "name": "defaultOperators",
      "outputs": [
        {
          "internalType": "address[]",
          "name": "",
          "type": "address[]"
        }
      ],
      "stateMutability": "view",
      "type": "function"
    },
    {
      "inputs": [
        {
          "internalType": "address",
          "name": "sender",
          "type": "address"
        },
        {
          "internalType": "address",
          "name": "recipient",
          "type": "address"
        },
        {
          "internalType": "uint256",
          "name": "amount",
          "type": "uint256"
        },
        {
          "internalType": "bytes",
          "name": "data",
          "type": "bytes"
        },
        {
          "internalType": "bytes",
          "name": "operatorData",
          "type": "bytes"
        }
      ],
      "name": "operatorSend",
      "outputs": [],
      "stateMutability": "nonpayable",
      "type": "function"
    },
    {
      "inputs": [
        {
          "internalType": "address",
          "name": "account",
          "type": "address"
        },
        {
          "internalType": "uint256",
          "name": "amount",
          "type": "uint256"
        },
        {
          "internalType": "bytes",
          "name": "data",
          "type": "bytes"
        },
        {
          "internalType": "bytes",
          "name": "operatorData",
          "type": "bytes"
        }
      ],
      "name": "operatorBurn",
      "outputs": [],
      "stateMutability": "nonpayable",
      "type": "function"
    },
    {
      "inputs": [
        {
          "internalType": "address",
          "name": "holder",
          "type": "address"
        },
        {
          "internalType": "address",
          "name": "spender",
          "type": "address"
        }
      ],
      "name": "allowance",
      "outputs": [
        {
          "internalType": "uint256",
          "name": "",
          "type": "uint256"
        }
      ],
      "stateMutability": "view",
      "type": "function"
    },
    {
      "inputs": [
        {
          "internalType": "address",
          "name": "spender",
          "type": "address"
        },
        {
          "internalType": "uint256",
          "name": "value",
          "type": "uint256"
        }
      ],
      "name": "approve",
      "outputs": [
        {
          "internalType": "bool",
          "name": "",
          "type": "bool"
        }
      ],
      "stateMutability": "nonpayable",
      "type": "function"
    },
    {
      "inputs": [
        {
          "internalType": "address",
          "name": "spender",
          "type": "address"
        },
        {
          "internalType": "uint256",
          "name": "addedValue",
          "type": "uint256"
        }
      ],
      "name": "increaseAllowance",
      "outputs": [
        {
          "internalType": "bool",
          "name": "",
          "type": "bool"
        }
      ],
      "stateMutability": "nonpayable",
      "type": "function"
    },
    {
      "inputs": [
        {
          "internalType": "address",
          "name": "spender",
          "type": "address"
        },
        {
          "internalType": "uint256",
          "name": "subtractedValue",
          "type": "uint256"
        }
      ],
      "name": "decreaseAllowance",
      "outputs": [
        {
          "internalType": "bool",
          "name": "",
          "type": "bool"
        }
      ],
      "stateMutability": "nonpayable",
      "type": "function"
    },
    {
      "inputs": [
        {
          "internalType": "address",
          "name": "holder",
          "type": "address"
        },
        {
          "internalType": "address",
          "name": "recipient",
          "type": "address"
        },
        {
          "internalType": "uint256",
          "name": "amount",
          "type": "uint256"
        }
      ],
      "name": "transferFrom",
      "outputs": [
        {
          "internalType": "bool",
          "name": "",
          "type": "bool"
        }
      ],
      "stateMutability": "nonpayable",
      "type": "function"
    },
    {
      "inputs": [
        {
          "internalType": "address",
          "name": "owner",
          "type": "address"
        },
        {
          "internalType": "address",
          "name": "spender",
          "type": "address"
        },
        {
          "internalType": "uint256",
          "name": "value",
          "type": "uint256"
        },
        {
          "internalType": "uint256",
          "name": "deadline",
          "type": "uint256"
        },
        {
          "internalType": "uint8",
          "name": "v",
          "type": "uint8"
        },
        {
          "internalType": "bytes32",
          "name": "r",
          "type": "bytes32"
        },
        {
          "internalType": "bytes32",
          "name": "s",
          "type": "bytes32"
        }
      ],
      "name": "permit",
      "outputs": [],
      "stateMutability": "nonpayable",
      "type": "function"
    },
    {
      "inputs": [
        {
          "internalType": "address",
          "name": "owner",
          "type": "address"
        }
      ],
      "name": "nonces",
      "outputs": [
        {
          "internalType": "uint256",
          "name": "",
          "type": "uint256"
        }
      ],
      "stateMutability": "view",
      "type": "function"
    },
    {
      "inputs": [],
      "name": "DOMAIN_SEPARATOR",
      "outputs": [
        {
          "internalType": "bytes32",
          "name": "",
          "type": "bytes32"
        }
      ],
      "stateMutability": "view",
      "type": "function"
    }
  ],
  "bytecode": "0x6101406040527f6e71edae12b1b97f4d1f60370fef10105fa2faae0126114a169c64845d6126c9610120908152503480156200003a57600080fd5b50604051620052fe380380620052fe833981810160405281019062000060919062000705565b826040518060400160405280600181526020017f310000000000000000000000000000000000000000000000000000000000000081525060008280519060200120905060008280519060200120905060007f8b73c3c69bb8fe3d512ecc4cf759cc79239f7b179b0ffacaa9a75d522b39400f90508260c081815250508160e081815250504660a08181525050620000ff8184846200039360201b60201c565b6080818152505080610100818152505050505050506200013462000128620003cf60201b60201c565b620003d760201b60201c565b82600290805190602001906200014c9291906200049b565b508160039080519060200190620001659291906200049b565b5080600490805190602001906200017e9291906200052c565b5060005b81518110156200023b57600160056000848481518110620001cc577f4e487b7100000000000000000000000000000000000000000000000000000000600052603260045260246000fd5b602002602001015173ffffffffffffffffffffffffffffffffffffffff1673ffffffffffffffffffffffffffffffffffffffff16815260200190815260200160002060006101000a81548160ff02191690831515021790555080806200023290620009eb565b91505062000182565b50731820a4b7618bde71dce8cdc73aab6c95905fad2473ffffffffffffffffffffffffffffffffffffffff166329965a1d307fac7fbab5f54a3ca8194167523c6753bfeb96a445279294b6125b68cce2177054306040518463ffffffff1660e01b8152600401620002af93929190620007d9565b600060405180830381600087803b158015620002ca57600080fd5b505af1158015620002df573d6000803e3d6000fd5b50505050731820a4b7618bde71dce8cdc73aab6c95905fad2473ffffffffffffffffffffffffffffffffffffffff166329965a1d307faea199e31a596269b42cdafd93407f14436db6e4cad65417994c2eb37381e05a306040518463ffffffff1660e01b81526004016200035693929190620007d9565b600060405180830381600087803b1580156200037157600080fd5b505af115801562000386573d6000803e3d6000fd5b5050505050505062000af1565b60008383834630604051602001620003b095949392919062000816565b6040516020818303038152906040528051906020012090509392505050565b600033905090565b60008060009054906101000a900473ffffffffffffffffffffffffffffffffffffffff169050816000806101000a81548173ffffffffffffffffffffffffffffffffffffffff021916908373ffffffffffffffffffffffffffffffffffffffff1602179055508173ffffffffffffffffffffffffffffffffffffffff168173ffffffffffffffffffffffffffffffffffffffff167f8be0079c531659141344cd1fd0a4f28419497f9722a3daafe3b4186f6b6457e060405160405180910390a35050565b828054620004a9906200097f565b90600052602060002090601f016020900481019282620004cd576000855562000519565b82601f10620004e857805160ff191683800117855562000519565b8280016001018555821562000519579182015b8281111562000518578251825591602001919060010190620004fb565b5b509050620005289190620005bb565b5090565b828054828255906000526020600020908101928215620005a8579160200282015b82811115620005a75782518260006101000a81548173ffffffffffffffffffffffffffffffffffffffff021916908373ffffffffffffffffffffffffffffffffffffffff160217905550916020019190600101906200054d565b5b509050620005b79190620005bb565b5090565b5b80821115620005d6576000816000905550600101620005bc565b5090565b6000620005f1620005eb846200089c565b62000873565b905080838252602082019050828560208602820111156200061157600080fd5b60005b858110156200064557816200062a888262000694565b84526020840193506020830192505060018101905062000614565b5050509392505050565b6000620006666200066084620008cb565b62000873565b9050828152602081018484840111156200067f57600080fd5b6200068c84828562000949565b509392505050565b600081519050620006a58162000ad7565b92915050565b600082601f830112620006bd57600080fd5b8151620006cf848260208601620005da565b91505092915050565b600082601f830112620006ea57600080fd5b8151620006fc8482602086016200064f565b91505092915050565b6000806000606084860312156200071b57600080fd5b600084015167ffffffffffffffff8111156200073657600080fd5b6200074486828701620006d8565b935050602084015167ffffffffffffffff8111156200076257600080fd5b6200077086828701620006d8565b925050604084015167ffffffffffffffff8111156200078e57600080fd5b6200079c86828701620006ab565b9150509250925092565b620007b18162000901565b82525050565b620007c28162000915565b82525050565b620007d3816200093f565b82525050565b6000606082019050620007f06000830186620007a6565b620007ff6020830185620007b7565b6200080e6040830184620007a6565b949350505050565b600060a0820190506200082d6000830188620007b7565b6200083c6020830187620007b7565b6200084b6040830186620007b7565b6200085a6060830185620007c8565b620008696080830184620007a6565b9695505050505050565b60006200087f62000892565b90506200088d8282620009b5565b919050565b6000604051905090565b600067ffffffffffffffff821115620008ba57620008b962000a97565b5b602082029050602081019050919050565b600067ffffffffffffffff821115620008e957620008e862000a97565b5b620008f48262000ac6565b9050602081019050919050565b60006200090e826200091f565b9050919050565b6000819050919050565b600073ffffffffffffffffffffffffffffffffffffffff82169050919050565b6000819050919050565b60005b83811015620009695780820151818401526020810190506200094c565b8381111562000979576000848401525b50505050565b600060028204905060018216806200099857607f821691505b60208210811415620009af57620009ae62000a68565b5b50919050565b620009c08262000ac6565b810181811067ffffffffffffffff82111715620009e257620009e162000a97565b5b80604052505050565b6000620009f8826200093f565b91507fffffffffffffffffffffffffffffffffffffffffffffffffffffffffffffffff82141562000a2e5762000a2d62000a39565b5b600182019050919050565b7f4e487b7100000000000000000000000000000000000000000000000000000000600052601160045260246000fd5b7f4e487b7100000000000000000000000000000000000000000000000000000000600052602260045260246000fd5b7f4e487b7100000000000000000000000000000000000000000000000000000000600052604160045260246000fd5b6000601f19601f8301169050919050565b62000ae28162000901565b811462000aee57600080fd5b50565b60805160a05160c05160e05161010051610120516147bd62000b4160003960006112710152600061212f0152600061217101526000612150015260006120dc0152600061210401526147bd6000f3fe608060405234801561001057600080fd5b50600436106101cf5760003560e01c80638da5cb5b11610104578063a9059cbb116100a2578063f2fde38b11610071578063f2fde38b14610558578063fad8b32a14610574578063fc673c4f14610590578063fe9d9303146105ac576101cf565b8063a9059cbb146104ac578063d505accf146104dc578063d95b6371146104f8578063dd62ed3e14610528576101cf565b80639711715a116100de5780639711715a14610426578063981b24d0146104305780639bd9bbc614610460578063a457c2d71461047c576101cf565b80638da5cb5b146103ce578063959b8c3f146103ec57806395d89b4114610408576101cf565b8063395093511161017157806362ad1b831161014b57806362ad1b831461034857806370a0823114610364578063715018a6146103945780637ecebe001461039e576101cf565b806339509351146102ca5780634ee2cd7e146102fa578063556f0dc71461032a576101cf565b806318160ddd116101ad57806318160ddd1461024057806323b872dd1461025e578063313ce5671461028e5780633644e515146102ac576101cf565b806306e48538146101d457806306fdde03146101f2578063095ea7b314610210575b600080fd5b6101dc6105c8565b6040516101e991906137f7565b60405180910390f35b6101fa610656565b6040516102079190613948565b60405180910390f35b61022a60048036038101906102259190613096565b6106e8565b6040516102379190613819565b60405180910390f35b61024861070b565b6040516102559190613c6a565b60405180910390f35b61027860048036038101906102739190612f02565b610715565b6040516102859190613819565b60405180910390f35b61029661096f565b6040516102a39190613cca565b60405180910390f35b6102b4610978565b6040516102c19190613834565b60405180910390f35b6102e460048036038101906102df9190613096565b610987565b6040516102f19190613819565b60405180910390f35b610314600480360381019061030f9190613096565b610a33565b6040516103219190613c6a565b60405180910390f35b610332610aa3565b60405161033f9190613c6a565b60405180910390f35b610362600480360381019061035d9190612f51565b610aac565b005b61037e60048036038101906103799190612e74565b610b12565b60405161038b9190613c6a565b60405180910390f35b61039c610b5b565b005b6103b860048036038101906103b39190612e74565b610be3565b6040516103c59190613c6a565b60405180910390f35b6103d6610c33565b6040516103e39190613744565b60405180910390f35b61040660048036038101906104019190612e74565b610c5c565b005b610410610ebd565b60405161041d9190613948565b60405180910390f35b61042e610f4f565b005b61044a600480360381019061044591906131cc565b610fd6565b6040516104579190613c6a565b60405180910390f35b61047a600480360381019061047591906130d2565b611007565b005b61049660048036038101906104919190613096565b611031565b6040516104a39190613819565b60405180910390f35b6104c660048036038101906104c19190613096565b61111c565b6040516104d39190613819565b60405180910390f35b6104f660048036038101906104f19190612ff8565b61122a565b005b610512600480360381019061050d9190612ec6565b61136c565b60405161051f9190613819565b60405180910390f35b610542600480360381019061053d9190612ec6565b61151d565b60405161054f9190613c6a565b60405180910390f35b610572600480360381019061056d9190612e74565b6115a4565b005b61058e60048036038101906105899190612e74565b61169c565b005b6105aa60048036038101906105a59190613139565b6118fd565b005b6105c660048036038101906105c191906131f5565b61195f565b005b6060600480548060200260200160405190810160405280929190818152602001828054801561064c57602002820191906000526020600020905b8160009054906101000a900473ffffffffffffffffffffffffffffffffffffffff1673ffffffffffffffffffffffffffffffffffffffff1681526020019060010190808311610602575b5050505050905090565b60606002805461066590613f13565b80601f016020809104026020016040519081016040528092919081815260200182805461069190613f13565b80156106de5780601f106106b3576101008083540402835291602001916106de565b820191906000526020600020905b8154815290600101906020018083116106c157829003601f168201915b5050505050905090565b6000806106f3611985565b905061070081858561198d565b600191505092915050565b6000600154905090565b60008073ffffffffffffffffffffffffffffffffffffffff168373ffffffffffffffffffffffffffffffffffffffff161415610786576040517f08c379a000000000000000000000000000000000000000000000000000000000815260040161077d90613b4a565b60405180910390fd5b600073ffffffffffffffffffffffffffffffffffffffff168473ffffffffffffffffffffffffffffffffffffffff1614156107f6576040517f08c379a00000000000000000000000000000000000000000000000000000000081526004016107ed90613bca565b60405180910390fd5b6000610800611985565b905061082e818686866040518060200160405280600081525060405180602001604052806000815250611b58565b61085a818686866040518060200160405280600081525060405180602001604052806000815250611cce565b6000600a60008773ffffffffffffffffffffffffffffffffffffffff1673ffffffffffffffffffffffffffffffffffffffff16815260200190815260200160002060008373ffffffffffffffffffffffffffffffffffffffff1673ffffffffffffffffffffffffffffffffffffffff1681526020019081526020016000205490508381101561091e576040517f08c379a000000000000000000000000000000000000000000000000000000000815260040161091590613baa565b60405180910390fd5b6109348683868461092f9190613e3e565b61198d565b6109628287878760405180602001604052806000815250604051806020016040528060008152506000611ef7565b6001925050509392505050565b60006012905090565b60006109826120d8565b905090565b6000610a29610994611985565b8484600a60006109a2611985565b73ffffffffffffffffffffffffffffffffffffffff1673ffffffffffffffffffffffffffffffffffffffff16815260200190815260200160002060008873ffffffffffffffffffffffffffffffffffffffff1673ffffffffffffffffffffffffffffffffffffffff16815260200190815260200160002054610a249190613db7565b61198d565b6001905092915050565b6000806000610a8084600b60008873ffffffffffffffffffffffffffffffffffffffff1673ffffffffffffffffffffffffffffffffffffffff16815260200190815260200160002061219b565b9150915081610a9757610a9285610b12565b610a99565b805b9250505092915050565b60006001905090565b610abd610ab7611985565b8661136c565b610afc576040517f08c379a0000000000000000000000000000000000000000000000000000000008152600401610af390613b6a565b60405180910390fd5b610b0b858585858560016122b7565b5050505050565b6000600860008373ffffffffffffffffffffffffffffffffffffffff1673ffffffffffffffffffffffffffffffffffffffff168152602001908152602001600020549050919050565b610b63611985565b73ffffffffffffffffffffffffffffffffffffffff16610b81610c33565b73ffffffffffffffffffffffffffffffffffffffff1614610bd7576040517f08c379a0000000000000000000000000000000000000000000000000000000008152600401610bce90613b0a565b60405180910390fd5b610be160006123d7565b565b6000610c2c600960008473ffffffffffffffffffffffffffffffffffffffff1673ffffffffffffffffffffffffffffffffffffffff16815260200190815260200160002061249b565b9050919050565b60008060009054906101000a900473ffffffffffffffffffffffffffffffffffffffff16905090565b8073ffffffffffffffffffffffffffffffffffffffff16610c7b611985565b73ffffffffffffffffffffffffffffffffffffffff161415610cd2576040517f08c379a0000000000000000000000000000000000000000000000000000000008152600401610cc990613a6a565b60405180910390fd5b600560008273ffffffffffffffffffffffffffffffffffffffff1673ffffffffffffffffffffffffffffffffffffffff16815260200190815260200160002060009054906101000a900460ff1615610dbc5760076000610d30611985565b73ffffffffffffffffffffffffffffffffffffffff1673ffffffffffffffffffffffffffffffffffffffff16815260200190815260200160002060008273ffffffffffffffffffffffffffffffffffffffff1673ffffffffffffffffffffffffffffffffffffffff16815260200190815260200160002060006101000a81549060ff0219169055610e59565b600160066000610dca611985565b73ffffffffffffffffffffffffffffffffffffffff1673ffffffffffffffffffffffffffffffffffffffff16815260200190815260200160002060008373ffffffffffffffffffffffffffffffffffffffff1673ffffffffffffffffffffffffffffffffffffffff16815260200190815260200160002060006101000a81548160ff0219169083151502179055505b610e61611985565b73ffffffffffffffffffffffffffffffffffffffff168173ffffffffffffffffffffffffffffffffffffffff167ff4caeb2d6ca8932a215a353d0703c326ec2d81fc68170f320eb2ab49e9df61f960405160405180910390a350565b606060038054610ecc90613f13565b80601f0160208091040260200160405190810160405280929190818152602001828054610ef890613f13565b8015610f455780601f10610f1a57610100808354040283529160200191610f45565b820191906000526020600020905b815481529060010190602001808311610f2857829003601f168201915b5050505050905090565b610f57611985565b73ffffffffffffffffffffffffffffffffffffffff16610f75610c33565b73ffffffffffffffffffffffffffffffffffffffff1614610fcb576040517f08c379a0000000000000000000000000000000000000000000000000000000008152600401610fc290613b0a565b60405180910390fd5b610fd36124a9565b50565b6000806000610fe684600c61219b565b9150915081610ffc57610ff761070b565b610ffe565b805b92505050919050565b61102c611012611985565b8484846040518060200160405280600081525060016122b7565b505050565b600080600a6000611040611985565b73ffffffffffffffffffffffffffffffffffffffff1673ffffffffffffffffffffffffffffffffffffffff16815260200190815260200160002060008573ffffffffffffffffffffffffffffffffffffffff1673ffffffffffffffffffffffffffffffffffffffff168152602001908152602001600020549050828110156110fd576040517f08c379a00000000000000000000000000000000000000000000000000000000081526004016110f490613c2a565b60405180910390fd5b611111611108611985565b8585840361198d565b600191505092915050565b60008073ffffffffffffffffffffffffffffffffffffffff168373ffffffffffffffffffffffffffffffffffffffff16141561118d576040517f08c379a000000000000000000000000000000000000000000000000000000000815260040161118490613b4a565b60405180910390fd5b6000611197611985565b90506111c5818286866040518060200160405280600081525060405180602001604052806000815250611b58565b6111f1818286866040518060200160405280600081525060405180602001604052806000815250611cce565b61121f8182868660405180602001604052806000815250604051806020016040528060008152506000611ef7565b600191505092915050565b8342111561126d576040517f08c379a000000000000000000000000000000000000000000000000000000000815260040161126490613a4a565b60405180910390fd5b60007f000000000000000000000000000000000000000000000000000000000000000088888861129c8c6124ff565b896040516020016112b29695949392919061384f565b60405160208183030381529060405280519060200120905060006112d58261255d565b905060006112e582878787612577565b90508973ffffffffffffffffffffffffffffffffffffffff168173ffffffffffffffffffffffffffffffffffffffff1614611355576040517f08c379a000000000000000000000000000000000000000000000000000000000815260040161134c90613aea565b60405180910390fd5b6113608a8a8a61198d565b50505050505050505050565b60008173ffffffffffffffffffffffffffffffffffffffff168373ffffffffffffffffffffffffffffffffffffffff1614806114845750600560008473ffffffffffffffffffffffffffffffffffffffff1673ffffffffffffffffffffffffffffffffffffffff16815260200190815260200160002060009054906101000a900460ff1680156114835750600760008373ffffffffffffffffffffffffffffffffffffffff1673ffffffffffffffffffffffffffffffffffffffff16815260200190815260200160002060008473ffffffffffffffffffffffffffffffffffffffff1673ffffffffffffffffffffffffffffffffffffffff16815260200190815260200160002060009054906101000a900460ff16155b5b806115155750600660008373ffffffffffffffffffffffffffffffffffffffff1673ffffffffffffffffffffffffffffffffffffffff16815260200190815260200160002060008473ffffffffffffffffffffffffffffffffffffffff1673ffffffffffffffffffffffffffffffffffffffff16815260200190815260200160002060009054906101000a900460ff165b905092915050565b6000600a60008473ffffffffffffffffffffffffffffffffffffffff1673ffffffffffffffffffffffffffffffffffffffff16815260200190815260200160002060008373ffffffffffffffffffffffffffffffffffffffff1673ffffffffffffffffffffffffffffffffffffffff16815260200190815260200160002054905092915050565b6115ac611985565b73ffffffffffffffffffffffffffffffffffffffff166115ca610c33565b73ffffffffffffffffffffffffffffffffffffffff1614611620576040517f08c379a000000000000000000000000000000000000000000000000000000000815260040161161790613b0a565b60405180910390fd5b600073ffffffffffffffffffffffffffffffffffffffff168173ffffffffffffffffffffffffffffffffffffffff161415611690576040517f08c379a000000000000000000000000000000000000000000000000000000000815260040161168790613a0a565b60405180910390fd5b611699816123d7565b50565b6116a4611985565b73ffffffffffffffffffffffffffffffffffffffff168173ffffffffffffffffffffffffffffffffffffffff161415611712576040517f08c379a000000000000000000000000000000000000000000000000000000000815260040161170990613aaa565b60405180910390fd5b600560008273ffffffffffffffffffffffffffffffffffffffff1673ffffffffffffffffffffffffffffffffffffffff16815260200190815260200160002060009054906101000a900460ff161561180557600160076000611772611985565b73ffffffffffffffffffffffffffffffffffffffff1673ffffffffffffffffffffffffffffffffffffffff16815260200190815260200160002060008373ffffffffffffffffffffffffffffffffffffffff1673ffffffffffffffffffffffffffffffffffffffff16815260200190815260200160002060006101000a81548160ff021916908315150217905550611899565b60066000611811611985565b73ffffffffffffffffffffffffffffffffffffffff1673ffffffffffffffffffffffffffffffffffffffff16815260200190815260200160002060008273ffffffffffffffffffffffffffffffffffffffff1673ffffffffffffffffffffffffffffffffffffffff16815260200190815260200160002060006101000a81549060ff02191690555b6118a1611985565b73ffffffffffffffffffffffffffffffffffffffff168173ffffffffffffffffffffffffffffffffffffffff167f50546e66e5f44d728365dc3908c63bc5cfeeab470722c1677e3073a6ac294aa160405160405180910390a350565b61190e611908611985565b8561136c565b61194d576040517f08c379a000000000000000000000000000000000000000000000000000000000815260040161194490613b6a565b60405180910390fd5b61195984848484612702565b50505050565b61198161196a611985565b838360405180602001604052806000815250612702565b5050565b600033905090565b600073ffffffffffffffffffffffffffffffffffffffff168373ffffffffffffffffffffffffffffffffffffffff1614156119fd576040517f08c379a00000000000000000000000000000000000000000000000000000000081526004016119f4906139aa565b60405180910390fd5b600073ffffffffffffffffffffffffffffffffffffffff168273ffffffffffffffffffffffffffffffffffffffff161415611a6d576040517f08c379a0000000000000000000000000000000000000000000000000000000008152600401611a6490613c4a565b60405180910390fd5b80600a60008573ffffffffffffffffffffffffffffffffffffffff1673ffffffffffffffffffffffffffffffffffffffff16815260200190815260200160002060008473ffffffffffffffffffffffffffffffffffffffff1673ffffffffffffffffffffffffffffffffffffffff168152602001908152602001600020819055508173ffffffffffffffffffffffffffffffffffffffff168373ffffffffffffffffffffffffffffffffffffffff167f8c5be1e5ebec7d5bd14f71427d1e84f3dd0314c0f7b2291e5b200ac8c7c3b92583604051611b4b9190613c6a565b60405180910390a3505050565b6000731820a4b7618bde71dce8cdc73aab6c95905fad2473ffffffffffffffffffffffffffffffffffffffff1663aabbb8ca877f29ddb589b1fb5fc7cf394961c1adf5f8c6454761adf795e67fe149f658abe8956040518363ffffffff1660e01b8152600401611bc99291906137ce565b60206040518083038186803b158015611be157600080fd5b505afa158015611bf5573d6000803e3d6000fd5b505050506040513d601f19601f82011682018060405250810190611c199190612e9d565b9050600073ffffffffffffffffffffffffffffffffffffffff168173ffffffffffffffffffffffffffffffffffffffff1614611cc5578073ffffffffffffffffffffffffffffffffffffffff166375ab97828888888888886040518763ffffffff1660e01b8152600401611c929695949392919061375f565b600060405180830381600087803b158015611cac57600080fd5b505af1158015611cc0573d6000803e3d6000fd5b505050505b50505050505050565b611cda86868686612964565b6000600860008773ffffffffffffffffffffffffffffffffffffffff1673ffffffffffffffffffffffffffffffffffffffff16815260200190815260200160002054905083811015611d61576040517f08c379a0000000000000000000000000000000000000000000000000000000008152600401611d58906139ea565b60405180910390fd5b838103600860008873ffffffffffffffffffffffffffffffffffffffff1673ffffffffffffffffffffffffffffffffffffffff1681526020019081526020016000208190555083600860008773ffffffffffffffffffffffffffffffffffffffff1673ffffffffffffffffffffffffffffffffffffffff1681526020019081526020016000206000828254611df69190613db7565b925050819055508473ffffffffffffffffffffffffffffffffffffffff168673ffffffffffffffffffffffffffffffffffffffff168873ffffffffffffffffffffffffffffffffffffffff167f06b541ddaa720db2b10a4d0cdac39b8d360425fc073085fac19bc82614677987878787604051611e7593929190613c85565b60405180910390a48473ffffffffffffffffffffffffffffffffffffffff168673ffffffffffffffffffffffffffffffffffffffff167fddf252ad1be2c89b69c2b068fc378daa952ba7f163c4a11628f55a4df523b3ef86604051611eda9190613c6a565b60405180910390a3611eee87878787612a14565b50505050505050565b6000731820a4b7618bde71dce8cdc73aab6c95905fad2473ffffffffffffffffffffffffffffffffffffffff1663aabbb8ca877fb281fc8c12954d22544db45de3159a39272895b169a852b314f9cc762e44c53b6040518363ffffffff1660e01b8152600401611f689291906137ce565b60206040518083038186803b158015611f8057600080fd5b505afa158015611f94573d6000803e3d6000fd5b505050506040513d601f19601f82011682018060405250810190611fb89190612e9d565b9050600073ffffffffffffffffffffffffffffffffffffffff168173ffffffffffffffffffffffffffffffffffffffff1614612067578073ffffffffffffffffffffffffffffffffffffffff166223de298989898989896040518763ffffffff1660e01b81526004016120309695949392919061375f565b600060405180830381600087803b15801561204a57600080fd5b505af115801561205e573d6000803e3d6000fd5b505050506120ce565b81156120cd5761208c8673ffffffffffffffffffffffffffffffffffffffff16612a1a565b156120cc576040517f08c379a00000000000000000000000000000000000000000000000000000000081526004016120c390613b2a565b60405180910390fd5b5b5b5050505050505050565b60007f000000000000000000000000000000000000000000000000000000000000000046141561212a577f00000000000000000000000000000000000000000000000000000000000000009050612198565b6121957f00000000000000000000000000000000000000000000000000000000000000007f00000000000000000000000000000000000000000000000000000000000000007f0000000000000000000000000000000000000000000000000000000000000000612a2d565b90505b90565b600080600084116121e1576040517f08c379a00000000000000000000000000000000000000000000000000000000081526004016121d890613b8a565b60405180910390fd5b6121e9612a67565b84111561222b576040517f08c379a00000000000000000000000000000000000000000000000000000000081526004016122229061398a565b60405180910390fd5b60006122438585600001612a7890919063ffffffff16565b905083600001805490508114156122615760008092509250506122b0565b600184600101828154811061229f577f4e487b7100000000000000000000000000000000000000000000000000000000600052603260045260246000fd5b906000526020600020015492509250505b9250929050565b600073ffffffffffffffffffffffffffffffffffffffff168673ffffffffffffffffffffffffffffffffffffffff161415612327576040517f08c379a000000000000000000000000000000000000000000000000000000000815260040161231e906139ca565b60405180910390fd5b600073ffffffffffffffffffffffffffffffffffffffff168573ffffffffffffffffffffffffffffffffffffffff161415612397576040517f08c379a000000000000000000000000000000000000000000000000000000000815260040161238e90613c0a565b60405180910390fd5b60006123a1611985565b90506123b1818888888888611b58565b6123bf818888888888611cce565b6123ce81888888888888611ef7565b50505050505050565b60008060009054906101000a900473ffffffffffffffffffffffffffffffffffffffff169050816000806101000a81548173ffffffffffffffffffffffffffffffffffffffff021916908373ffffffffffffffffffffffffffffffffffffffff1602179055508173ffffffffffffffffffffffffffffffffffffffff168173ffffffffffffffffffffffffffffffffffffffff167f8be0079c531659141344cd1fd0a4f28419497f9722a3daafe3b4186f6b6457e060405160405180910390a35050565b600081600001549050919050565b60006124b5600e612b9e565b60006124bf612a67565b90507f8030e83b04d87bef53480e26263266d6ca66863aa8506aca6f2559d18aa1cb67816040516124f09190613c6a565b60405180910390a18091505090565b600080600960008473ffffffffffffffffffffffffffffffffffffffff1673ffffffffffffffffffffffffffffffffffffffff168152602001908152602001600020905061254c8161249b565b915061255781612b9e565b50919050565b600061257061256a6120d8565b83612bb4565b9050919050565b60007f7fffffffffffffffffffffffffffffff5d576e7357a4501ddfe92f46681b20a08260001c11156125df576040517f08c379a00000000000000000000000000000000000000000000000000000000081526004016125d690613a8a565b60405180910390fd5b601b8460ff1614806125f45750601c8460ff16145b612633576040517f08c379a000000000000000000000000000000000000000000000000000000000815260040161262a90613aca565b60405180910390fd5b6000600186868686604051600081526020016040526040516126589493929190613903565b6020604051602081039080840390855afa15801561267a573d6000803e3d6000fd5b505050602060405103519050600073ffffffffffffffffffffffffffffffffffffffff168173ffffffffffffffffffffffffffffffffffffffff1614156126f6576040517f08c379a00000000000000000000000000000000000000000000000000000000081526004016126ed9061396a565b60405180910390fd5b80915050949350505050565b600073ffffffffffffffffffffffffffffffffffffffff168473ffffffffffffffffffffffffffffffffffffffff161415612772576040517f08c379a000000000000000000000000000000000000000000000000000000000815260040161276990613a2a565b60405180910390fd5b600061277c611985565b905061278d81866000878787611b58565b61279a8186600087612964565b6000600860008773ffffffffffffffffffffffffffffffffffffffff1673ffffffffffffffffffffffffffffffffffffffff16815260200190815260200160002054905084811015612821576040517f08c379a000000000000000000000000000000000000000000000000000000000815260040161281890613bea565b60405180910390fd5b848103600860008873ffffffffffffffffffffffffffffffffffffffff1673ffffffffffffffffffffffffffffffffffffffff1681526020019081526020016000208190555084600160008282546128799190613e3e565b925050819055508573ffffffffffffffffffffffffffffffffffffffff168273ffffffffffffffffffffffffffffffffffffffff167fa78a9be3a7b862d26933ad85fb11d80ef66b8f972d7cbba06621d583943a40988787876040516128e193929190613c85565b60405180910390a3600073ffffffffffffffffffffffffffffffffffffffff168673ffffffffffffffffffffffffffffffffffffffff167fddf252ad1be2c89b69c2b068fc378daa952ba7f163c4a11628f55a4df523b3ef876040516129479190613c6a565b60405180910390a361295c8287600088612a14565b505050505050565b600073ffffffffffffffffffffffffffffffffffffffff168373ffffffffffffffffffffffffffffffffffffffff1614156129af576129a282612be7565b6129aa612c3a565b612a0e565b600073ffffffffffffffffffffffffffffffffffffffff168273ffffffffffffffffffffffffffffffffffffffff1614156129fa576129ed83612be7565b6129f5612c3a565b612a0d565b612a0383612be7565b612a0c82612be7565b5b5b50505050565b50505050565b600080823b905060008111915050919050565b60008383834630604051602001612a489594939291906138b0565b6040516020818303038152906040528051906020012090509392505050565b6000612a73600e61249b565b905090565b60008083805490501415612a8f5760009050612b98565b600080848054905090505b80821015612b19576000612aae8383612c4e565b905084868281548110612aea577f4e487b7100000000000000000000000000000000000000000000000000000000600052603260045260246000fd5b90600052602060002001541115612b0357809150612b13565b600181612b109190613db7565b92505b50612a9a565b600082118015612b7757508385600184612b339190613e3e565b81548110612b6a577f4e487b7100000000000000000000000000000000000000000000000000000000600052603260045260246000fd5b9060005260206000200154145b15612b9257600182612b899190613e3e565b92505050612b98565b81925050505b92915050565b6001816000016000828254019250508190555050565b60008282604051602001612bc992919061370d565b60405160208183030381529060405280519060200120905092915050565b612c37600b60008373ffffffffffffffffffffffffffffffffffffffff1673ffffffffffffffffffffffffffffffffffffffff168152602001908152602001600020612c3283610b12565b612cb5565b50565b612c4c600c612c4761070b565b612cb5565b565b600060028083612c5e9190613f80565b600285612c6b9190613f80565b612c759190613db7565b612c7f9190613e0d565b600283612c8c9190613e0d565b600285612c999190613e0d565b612ca39190613db7565b612cad9190613db7565b905092915050565b6000612cbf612a67565b905080612cce84600001612d30565b1015612d2b5782600001819080600181540180825580915050600190039060005260206000200160009091909190915055826001018290806001815401808255809150506001900390600052602060002001600090919091909150555b505050565b60008082805490501415612d475760009050612d9e565b8160018380549050612d599190613e3e565b81548110612d90577f4e487b7100000000000000000000000000000000000000000000000000000000600052603260045260246000fd5b906000526020600020015490505b919050565b6000612db6612db184613d0a565b613ce5565b905082815260208101848484011115612dce57600080fd5b612dd9848285613ed1565b509392505050565b600081359050612df08161472b565b92915050565b600081519050612e058161472b565b92915050565b600081359050612e1a81614742565b92915050565b600082601f830112612e3157600080fd5b8135612e41848260208601612da3565b91505092915050565b600081359050612e5981614759565b92915050565b600081359050612e6e81614770565b92915050565b600060208284031215612e8657600080fd5b6000612e9484828501612de1565b91505092915050565b600060208284031215612eaf57600080fd5b6000612ebd84828501612df6565b91505092915050565b60008060408385031215612ed957600080fd5b6000612ee785828601612de1565b9250506020612ef885828601612de1565b9150509250929050565b600080600060608486031215612f1757600080fd5b6000612f2586828701612de1565b9350506020612f3686828701612de1565b9250506040612f4786828701612e4a565b9150509250925092565b600080600080600060a08688031215612f6957600080fd5b6000612f7788828901612de1565b9550506020612f8888828901612de1565b9450506040612f9988828901612e4a565b935050606086013567ffffffffffffffff811115612fb657600080fd5b612fc288828901612e20565b925050608086013567ffffffffffffffff811115612fdf57600080fd5b612feb88828901612e20565b9150509295509295909350565b600080600080600080600060e0888a03121561301357600080fd5b60006130218a828b01612de1565b97505060206130328a828b01612de1565b96505060406130438a828b01612e4a565b95505060606130548a828b01612e4a565b94505060806130658a828b01612e5f565b93505060a06130768a828b01612e0b565b92505060c06130878a828b01612e0b565b91505092959891949750929550565b600080604083850312156130a957600080fd5b60006130b785828601612de1565b92505060206130c885828601612e4a565b9150509250929050565b6000806000606084860312156130e757600080fd5b60006130f586828701612de1565b935050602061310686828701612e4a565b925050604084013567ffffffffffffffff81111561312357600080fd5b61312f86828701612e20565b9150509250925092565b6000806000806080858703121561314f57600080fd5b600061315d87828801612de1565b945050602061316e87828801612e4a565b935050604085013567ffffffffffffffff81111561318b57600080fd5b61319787828801612e20565b925050606085013567ffffffffffffffff8111156131b457600080fd5b6131c087828801612e20565b91505092959194509250565b6000602082840312156131de57600080fd5b60006131ec84828501612e4a565b91505092915050565b6000806040838503121561320857600080fd5b600061321685828601612e4a565b925050602083013567ffffffffffffffff81111561323357600080fd5b61323f85828601612e20565b9150509250929050565b60006132558383613261565b60208301905092915050565b61326a81613e72565b82525050565b61327981613e72565b82525050565b600061328a82613d4b565b6132948185613d79565b935061329f83613d3b565b8060005b838110156132d05781516132b78882613249565b97506132c283613d6c565b9250506001810190506132a3565b5085935050505092915050565b6132e681613e84565b82525050565b6132f581613e90565b82525050565b61330c61330782613e90565b613f76565b82525050565b600061331d82613d56565b6133278185613d8a565b9350613337818560208601613ee0565b6133408161406d565b840191505092915050565b600061335682613d61565b6133608185613d9b565b9350613370818560208601613ee0565b6133798161406d565b840191505092915050565b6000613391601883613d9b565b915061339c8261407e565b602082019050919050565b60006133b4601d83613d9b565b91506133bf826140a7565b602082019050919050565b60006133d7602583613d9b565b91506133e2826140d0565b604082019050919050565b60006133fa602283613d9b565b91506134058261411f565b604082019050919050565b600061341d602783613d9b565b91506134288261416e565b604082019050919050565b6000613440602683613d9b565b915061344b826141bd565b604082019050919050565b6000613463600283613dac565b915061346e8261420c565b600282019050919050565b6000613486602283613d9b565b915061349182614235565b604082019050919050565b60006134a9601d83613d9b565b91506134b482614284565b602082019050919050565b60006134cc602483613d9b565b91506134d7826142ad565b604082019050919050565b60006134ef602283613d9b565b91506134fa826142fc565b604082019050919050565b6000613512602183613d9b565b915061351d8261434b565b604082019050919050565b6000613535602283613d9b565b91506135408261439a565b604082019050919050565b6000613558601e83613d9b565b9150613563826143e9565b602082019050919050565b600061357b602083613d9b565b915061358682614412565b602082019050919050565b600061359e604d83613d9b565b91506135a98261443b565b606082019050919050565b60006135c1602483613d9b565b91506135cc826144b0565b604082019050919050565b60006135e4602c83613d9b565b91506135ef826144ff565b604082019050919050565b6000613607601683613d9b565b91506136128261454e565b602082019050919050565b600061362a602983613d9b565b915061363582614577565b604082019050919050565b600061364d602683613d9b565b9150613658826145c6565b604082019050919050565b6000613670602383613d9b565b915061367b82614615565b604082019050919050565b6000613693602083613d9b565b915061369e82614664565b602082019050919050565b60006136b6602583613d9b565b91506136c18261468d565b604082019050919050565b60006136d9602383613d9b565b91506136e4826146dc565b604082019050919050565b6136f881613eba565b82525050565b61370781613ec4565b82525050565b600061371882613456565b915061372482856132fb565b60208201915061373482846132fb565b6020820191508190509392505050565b60006020820190506137596000830184613270565b92915050565b600060c0820190506137746000830189613270565b6137816020830188613270565b61378e6040830187613270565b61379b60608301866136ef565b81810360808301526137ad8185613312565b905081810360a08301526137c18184613312565b9050979650505050505050565b60006040820190506137e36000830185613270565b6137f060208301846132ec565b9392505050565b60006020820190508181036000830152613811818461327f565b905092915050565b600060208201905061382e60008301846132dd565b92915050565b600060208201905061384960008301846132ec565b92915050565b600060c08201905061386460008301896132ec565b6138716020830188613270565b61387e6040830187613270565b61388b60608301866136ef565b61389860808301856136ef565b6138a560a08301846136ef565b979650505050505050565b600060a0820190506138c560008301886132ec565b6138d260208301876132ec565b6138df60408301866132ec565b6138ec60608301856136ef565b6138f96080830184613270565b9695505050505050565b600060808201905061391860008301876132ec565b61392560208301866136fe565b61393260408301856132ec565b61393f60608301846132ec565b95945050505050565b60006020820190508181036000830152613962818461334b565b905092915050565b6000602082019050818103600083015261398381613384565b9050919050565b600060208201905081810360008301526139a3816133a7565b9050919050565b600060208201905081810360008301526139c3816133ca565b9050919050565b600060208201905081810360008301526139e3816133ed565b9050919050565b60006020820190508181036000830152613a0381613410565b9050919050565b60006020820190508181036000830152613a2381613433565b9050919050565b60006020820190508181036000830152613a4381613479565b9050919050565b60006020820190508181036000830152613a638161349c565b9050919050565b60006020820190508181036000830152613a83816134bf565b9050919050565b60006020820190508181036000830152613aa3816134e2565b9050919050565b60006020820190508181036000830152613ac381613505565b9050919050565b60006020820190508181036000830152613ae381613528565b9050919050565b60006020820190508181036000830152613b038161354b565b9050919050565b60006020820190508181036000830152613b238161356e565b9050919050565b60006020820190508181036000830152613b4381613591565b9050919050565b60006020820190508181036000830152613b63816135b4565b9050919050565b60006020820190508181036000830152613b83816135d7565b9050919050565b60006020820190508181036000830152613ba3816135fa565b9050919050565b60006020820190508181036000830152613bc38161361d565b9050919050565b60006020820190508181036000830152613be381613640565b9050919050565b60006020820190508181036000830152613c0381613663565b9050919050565b60006020820190508181036000830152613c2381613686565b9050919050565b60006020820190508181036000830152613c43816136a9565b9050919050565b60006020820190508181036000830152613c63816136cc565b9050919050565b6000602082019050613c7f60008301846136ef565b92915050565b6000606082019050613c9a60008301866136ef565b8181036020830152613cac8185613312565b90508181036040830152613cc08184613312565b9050949350505050565b6000602082019050613cdf60008301846136fe565b92915050565b6000613cef613d00565b9050613cfb8282613f45565b919050565b6000604051905090565b600067ffffffffffffffff821115613d2557613d2461403e565b5b613d2e8261406d565b9050602081019050919050565b6000819050602082019050919050565b600081519050919050565b600081519050919050565b600081519050919050565b6000602082019050919050565b600082825260208201905092915050565b600082825260208201905092915050565b600082825260208201905092915050565b600081905092915050565b6000613dc282613eba565b9150613dcd83613eba565b9250827fffffffffffffffffffffffffffffffffffffffffffffffffffffffffffffffff03821115613e0257613e01613fb1565b5b828201905092915050565b6000613e1882613eba565b9150613e2383613eba565b925082613e3357613e32613fe0565b5b828204905092915050565b6000613e4982613eba565b9150613e5483613eba565b925082821015613e6757613e66613fb1565b5b828203905092915050565b6000613e7d82613e9a565b9050919050565b60008115159050919050565b6000819050919050565b600073ffffffffffffffffffffffffffffffffffffffff82169050919050565b6000819050919050565b600060ff82169050919050565b82818337600083830152505050565b60005b83811015613efe578082015181840152602081019050613ee3565b83811115613f0d576000848401525b50505050565b60006002820490506001821680613f2b57607f821691505b60208210811415613f3f57613f3e61400f565b5b50919050565b613f4e8261406d565b810181811067ffffffffffffffff82111715613f6d57613f6c61403e565b5b80604052505050565b6000819050919050565b6000613f8b82613eba565b9150613f9683613eba565b925082613fa657613fa5613fe0565b5b828206905092915050565b7f4e487b7100000000000000000000000000000000000000000000000000000000600052601160045260246000fd5b7f4e487b7100000000000000000000000000000000000000000000000000000000600052601260045260246000fd5b7f4e487b7100000000000000000000000000000000000000000000000000000000600052602260045260246000fd5b7f4e487b7100000000000000000000000000000000000000000000000000000000600052604160045260246000fd5b6000601f19601f8301169050919050565b7f45434453413a20696e76616c6964207369676e61747572650000000000000000600082015250565b7f4552433230536e617073686f743a206e6f6e6578697374656e74206964000000600082015250565b7f4552433737373a20617070726f76652066726f6d20746865207a65726f20616460008201527f6472657373000000000000000000000000000000000000000000000000000000602082015250565b7f4552433737373a2073656e642066726f6d20746865207a65726f20616464726560008201527f7373000000000000000000000000000000000000000000000000000000000000602082015250565b7f4552433737373a207472616e7366657220616d6f756e7420657863656564732060008201527f62616c616e636500000000000000000000000000000000000000000000000000602082015250565b7f4f776e61626c653a206e6577206f776e657220697320746865207a65726f206160008201527f6464726573730000000000000000000000000000000000000000000000000000602082015250565b7f1901000000000000000000000000000000000000000000000000000000000000600082015250565b7f4552433737373a206275726e2066726f6d20746865207a65726f20616464726560008201527f7373000000000000000000000000000000000000000000000000000000000000602082015250565b7f45524332305065726d69743a206578706972656420646561646c696e65000000600082015250565b7f4552433737373a20617574686f72697a696e672073656c66206173206f70657260008201527f61746f7200000000000000000000000000000000000000000000000000000000602082015250565b7f45434453413a20696e76616c6964207369676e6174757265202773272076616c60008201527f7565000000000000000000000000000000000000000000000000000000000000602082015250565b7f4552433737373a207265766f6b696e672073656c66206173206f70657261746f60008201527f7200000000000000000000000000000000000000000000000000000000000000602082015250565b7f45434453413a20696e76616c6964207369676e6174757265202776272076616c60008201527f7565000000000000000000000000000000000000000000000000000000000000602082015250565b7f45524332305065726d69743a20696e76616c6964207369676e61747572650000600082015250565b7f4f776e61626c653a2063616c6c6572206973206e6f7420746865206f776e6572600082015250565b7f4552433737373a20746f6b656e20726563697069656e7420636f6e747261637460008201527f20686173206e6f20696d706c656d656e74657220666f7220455243373737546f60208201527f6b656e73526563697069656e7400000000000000000000000000000000000000604082015250565b7f4552433737373a207472616e7366657220746f20746865207a65726f2061646460008201527f7265737300000000000000000000000000000000000000000000000000000000602082015250565b7f4552433737373a2063616c6c6572206973206e6f7420616e206f70657261746f60008201527f7220666f7220686f6c6465720000000000000000000000000000000000000000602082015250565b7f4552433230536e617073686f743a206964206973203000000000000000000000600082015250565b7f4552433737373a207472616e7366657220616d6f756e7420657863656564732060008201527f616c6c6f77616e63650000000000000000000000000000000000000000000000602082015250565b7f4552433737373a207472616e736665722066726f6d20746865207a65726f206160008201527f6464726573730000000000000000000000000000000000000000000000000000602082015250565b7f4552433737373a206275726e20616d6f756e7420657863656564732062616c6160008201527f6e63650000000000000000000000000000000000000000000000000000000000602082015250565b7f4552433737373a2073656e6420746f20746865207a65726f2061646472657373600082015250565b7f45524332303a2064656372656173656420616c6c6f77616e63652062656c6f7760008201527f207a65726f000000000000000000000000000000000000000000000000000000602082015250565b7f4552433737373a20617070726f766520746f20746865207a65726f206164647260008201527f6573730000000000000000000000000000000000000000000000000000000000602082015250565b61473481613e72565b811461473f57600080fd5b50565b61474b81613e90565b811461475657600080fd5b50565b61476281613eba565b811461476d57600080fd5b50565b61477981613ec4565b811461478457600080fd5b5056fea2646970667358221220e9c7380787bb1c47c1da1822ac9aa2594ed12b6306b6b927fcdabe66cccaed9164736f6c63430008040033",
  "immutableReferences": {
    "3304": [
      {
        "length": 32,
        "start": 4721
      }
    ],
    "5958": [
      {
        "length": 32,
        "start": 8452
      }
    ],
    "5960": [
      {
        "length": 32,
        "start": 8412
      }
    ],
    "5962": [
      {
        "length": 32,
        "start": 8528
      }
    ],
    "5964": [
      {
        "length": 32,
        "start": 8561
      }
    ],
    "5966": [
      {
        "length": 32,
        "start": 8495
      }
    ]
  },
  "source": "// SPDX-License-Identifier: MIT\r\n\r\npragma solidity ^0.8.0;\r\n\r\nimport \"./IERC777.sol\";\r\nimport \"./IERC777Recipient.sol\";\r\nimport \"./IERC777Sender.sol\";\r\nimport \"./extensions/IERC777Permit.sol\";\r\nimport \"../ERC20/IERC20.sol\";\r\nimport \"../../utils/Address.sol\";\r\nimport \"../../utils/Arrays.sol\";\r\nimport \"../../utils/Context.sol\";\r\nimport \"../../utils/Counters.sol\";\r\nimport \"../../utils/introspection/IERC1820Registry.sol\";\r\nimport \"../../utils/cryptography/EIP712.sol\";\r\nimport \"../../utils/access/Ownable.sol\";\r\n\r\n/**\r\n * @dev Implementation of the {IERC777} interface and this contract extends an ERC20 token with a snapshot mechanism.\r\n * When a snapshot is created, the balances and total supply at the time are recorded for later access.\r\n *\r\n * This implementation is agnostic to the way tokens are created. This means\r\n * that a supply mechanism has to be added in a derived contract using {_mint}.\r\n *\r\n * Support for ERC20 is included in this contract, as specified by the EIP: both\r\n * the ERC777 and ERC20 interfaces can be safely used when interacting with it.\r\n * Both {IERC777-Sent} and {IERC20-Transfer} events are emitted on token\r\n * movements.\r\n *\r\n * Additionally, the {IERC777-granularity} value is hard-coded to `1`, meaning that there\r\n * are no special restrictions in the amount of tokens that created, moved, or\r\n * destroyed. This makes integration with ERC20 applications seamless.\r\n * \r\n * \r\n * This can be used to safely create mechanisms based on token balances such as trustless dividends or weighted voting.\r\n * In naive implementations it's possible to perform a \"double spend\" attack by reusing the same balance from different\r\n * accounts. By using snapshots to calculate dividends or voting power, those attacks no longer apply. It can also be\r\n * used to create an efficient ERC20 forking mechanism.\r\n *\r\n * Snapshots are created by the internal {_snapshot} function, which will emit the {Snapshot} event and return a\r\n * snapshot id. To get the total supply at the time of a snapshot, call the function {totalSupplyAt} with the snapshot\r\n * id. To get the balance of an account at the time of a snapshot, call the {balanceOfAt} function with the snapshot id\r\n * and the account address.\r\n *\r\n * NOTE: Snapshot policy can be customized by overriding the {_getCurrentSnapshotId} method. For example, having it\r\n * return `block.number` will trigger the creation of snapshot at the begining of each new block. When overridding this\r\n * function, be careful about the monotonicity of its result. Non-monotonic snapshot ids will break the contract.\r\n *\r\n * Implementing snapshots for every block using this method will incur significant gas costs. For a gas-efficient\r\n * alternative consider {ERC20Votes}.\r\n *\r\n * ==== Gas Costs\r\n *\r\n * Snapshots are efficient. Snapshot creation is _O(1)_. Retrieval of balances or total supply from a snapshot is _O(log\r\n * n)_ in the number of snapshots that have been created, although _n_ for a specific account will generally be much\r\n * smaller since identical balances in subsequent snapshots are stored as a single entry.\r\n *\r\n * There is a constant overhead for normal ERC20 transfers due to the additional snapshot bookkeeping. This overhead is\r\n * only significant for the first transfer that immediately follows a snapshot for a particular account. Subsequent\r\n * transfers will have normal cost until the next snapshot, and so on.\r\n */\r\ncontract ERC777 is Context, IERC777, IERC777Permit, IERC20, EIP712, Ownable {\r\n    \r\n    using Address for address;\r\n    // Inspired by Jordi Baylina's MiniMeToken to record historical balances:\r\n    // https://github.com/Giveth/minimd/blob/ea04d950eea153a04c51fa510b068b9dded390cb/contracts/MiniMeToken.sol\r\n    using Arrays for uint256[];\r\n    using Counters for Counters.Counter;\r\n    \r\n    // Snapshotted values have arrays of ids and the value corresponding to that id. These could be an array of a\r\n    // Snapshot struct, but that would impede usage of functions that work on an array.\r\n    struct Snapshots {\r\n        uint256[] ids;\r\n        uint256[] values;\r\n    }\r\n\r\n    IERC1820Registry internal constant _ERC1820_REGISTRY = IERC1820Registry(0x1820a4B7618BdE71Dce8cdc73aAB6C95905faD24);\r\n\r\n    // solhint-disable-next-line var-name-mixedcase\r\n    bytes32 private immutable _PERMIT_TYPEHASH =\r\n        keccak256(\"Permit(address owner,address spender,uint256 value,uint256 nonce,uint256 deadline)\");\r\n\r\n    uint256 private _totalSupply;\r\n\r\n    string private _name;\r\n    string private _symbol;\r\n\r\n    bytes32 private constant _TOKENS_SENDER_INTERFACE_HASH = keccak256(\"ERC777TokensSender\");\r\n    bytes32 private constant _TOKENS_RECIPIENT_INTERFACE_HASH = keccak256(\"ERC777TokensRecipient\");\r\n\r\n    // This isn't ever read from - it's only used to respond to the defaultOperators query.\r\n    address[] private _defaultOperatorsArray;\r\n\r\n    // Immutable, but accounts may revoke them (tracked in __revokedDefaultOperators).\r\n    mapping(address => bool) private _defaultOperators;\r\n\r\n    // For each account, a mapping of its operators and revoked default operators.\r\n    mapping(address => mapping(address => bool)) private _operators;\r\n    mapping(address => mapping(address => bool)) private _revokedDefaultOperators;\r\n    \r\n    // ERC20 Mappings\r\n    mapping(address => uint256) private _balances;\r\n    mapping(address => Counters.Counter) private _nonces;\r\n\r\n    // ERC20-allowances\r\n    mapping(address => mapping(address => uint256)) private _allowances;\r\n    \r\n    // ERC20-Snapshots\r\n    mapping(address => Snapshots) private _accountBalanceSnapshots;\r\n    Snapshots private _totalSupplySnapshots;\r\n\r\n    // Snapshot ids increase monotonically, with the first value being 1. An id of 0 is invalid.\r\n    Counters.Counter private _currentSnapshotId;\r\n    \r\n    /**\r\n     * @dev Initializes the {EIP712} domain separator using the `name` parameter, and setting `version` to `\"1\"`.\r\n     * @dev `defaultOperators` may be an empty array.\r\n     * \r\n     * It's a good idea to use the same `name` that is defined as the ERC20 token name.\r\n     */\r\n    constructor(\r\n        string memory name_,\r\n        string memory symbol_,\r\n        address[] memory defaultOperators_\r\n    ) EIP712(name_, \"1\") {\r\n        _name = name_;\r\n        _symbol = symbol_;\r\n\r\n        _defaultOperatorsArray = defaultOperators_;\r\n        for (uint256 i = 0; i < defaultOperators_.length; i++) {\r\n            _defaultOperators[defaultOperators_[i]] = true;\r\n        }\r\n\r\n        // register interfaces\r\n        _ERC1820_REGISTRY.setInterfaceImplementer(address(this), keccak256(\"ERC777Token\"), address(this));\r\n        _ERC1820_REGISTRY.setInterfaceImplementer(address(this), keccak256(\"ERC20Token\"), address(this));\r\n    }\r\n\r\n    /**\r\n     * @dev See {IERC777-name}.\r\n     */\r\n    function name() public view virtual override returns (string memory) {\r\n        return _name;\r\n    }\r\n\r\n    /**\r\n     * @dev See {IERC777-symbol}.\r\n     */\r\n    function symbol() public view virtual override returns (string memory) {\r\n        return _symbol;\r\n    }\r\n\r\n    /**\r\n     * @dev See {ERC20-decimals}.\r\n     *\r\n     * Always returns 18, as per the\r\n     * [ERC777 EIP](https://eips.ethereum.org/EIPS/eip-777#backward-compatibility).\r\n     */\r\n    function decimals() public pure virtual returns (uint8) {\r\n        return 18;\r\n    }\r\n\r\n    /**\r\n     * @dev See {IERC777-granularity}.\r\n     *\r\n     * This implementation always returns `1`.\r\n     */\r\n    function granularity() public view virtual override returns (uint256) {\r\n        return 1;\r\n    }\r\n\r\n    /**\r\n     * @dev See {IERC777-totalSupply}.\r\n     */\r\n    function totalSupply() public view virtual override(IERC20, IERC777) returns (uint256) {\r\n        return _totalSupply;\r\n    }\r\n\r\n    /**\r\n     * @dev Returns the amount of tokens owned by an account (`tokenHolder`).\r\n     */\r\n    function balanceOf(address tokenHolder) public view virtual override(IERC20, IERC777) returns (uint256) {\r\n        return _balances[tokenHolder];\r\n    }\r\n    \r\n    function snapshot() public onlyOwner {\r\n        _snapshot();\r\n    }\r\n    \r\n    /**\r\n     * @dev Emitted by {_snapshot} when a snapshot identified by `id` is created.\r\n     */\r\n    event Snapshot(uint256 id);\r\n\r\n    /**\r\n     * @dev Creates a new snapshot and returns its snapshot id.\r\n     *\r\n     * Emits a {Snapshot} event that contains the same id.\r\n     *\r\n     * {_snapshot} is `internal` and you have to decide how to expose it externally. Its usage may be restricted to a\r\n     * set of accounts, for example using {AccessControl}, or it may be open to the public.\r\n     *\r\n     * [WARNING]\r\n     * ====\r\n     * While an open way of calling {_snapshot} is required for certain trust minimization mechanisms such as forking,\r\n     * you must consider that it can potentially be used by attackers in two ways.\r\n     *\r\n     * First, it can be used to increase the cost of retrieval of values from snapshots, although it will grow\r\n     * logarithmically thus rendering this attack ineffective in the long term. Second, it can be used to target\r\n     * specific accounts and increase the cost of ERC20 transfers for them, in the ways specified in the Gas Costs\r\n     * section above.\r\n     *\r\n     * We haven't measured the actual numbers; if this is something you're interested in please reach out to us.\r\n     * ====\r\n     */\r\n    function _snapshot() internal virtual returns (uint256) {\r\n        _currentSnapshotId.increment();\r\n\r\n        uint256 currentId = _getCurrentSnapshotId();\r\n        emit Snapshot(currentId);\r\n        return currentId;\r\n    }\r\n    \r\n    /**\r\n     * @dev Get the current snapshotId\r\n     */\r\n    function _getCurrentSnapshotId() internal view virtual returns (uint256) {\r\n        return _currentSnapshotId.current();\r\n    }\r\n\r\n    /**\r\n     * @dev Retrieves the balance of `account` at the time `snapshotId` was created.\r\n     */\r\n    function balanceOfAt(address account, uint256 snapshotId) public view virtual returns (uint256) {\r\n        (bool snapshotted, uint256 value) = _valueAt(snapshotId, _accountBalanceSnapshots[account]);\r\n\r\n        return snapshotted ? value : balanceOf(account);\r\n    }\r\n    \r\n    /**\r\n     * @dev Retrieves the total supply at the time `snapshotId` was created.\r\n     */\r\n    function totalSupplyAt(uint256 snapshotId) public view virtual returns (uint256) {\r\n        (bool snapshotted, uint256 value) = _valueAt(snapshotId, _totalSupplySnapshots);\r\n\r\n        return snapshotted ? value : totalSupply();\r\n    }\r\n    \r\n        \r\n    function _valueAt(uint256 snapshotId, Snapshots storage snapshots) private view returns (bool, uint256) {\r\n        require(snapshotId > 0, \"ERC20Snapshot: id is 0\");\r\n        require(snapshotId <= _getCurrentSnapshotId(), \"ERC20Snapshot: nonexistent id\");\r\n\r\n        // When a valid snapshot is queried, there are three possibilities:\r\n        //  a) The queried value was not modified after the snapshot was taken. Therefore, a snapshot entry was never\r\n        //  created for this id, and all stored snapshot ids are smaller than the requested one. The value that corresponds\r\n        //  to this id is the current one.\r\n        //  b) The queried value was modified after the snapshot was taken. Therefore, there will be an entry with the\r\n        //  requested id, and its value is the one to return.\r\n        //  c) More snapshots were created after the requested one, and the queried value was later modified. There will be\r\n        //  no entry for the requested id: the value that corresponds to it is that of the smallest snapshot id that is\r\n        //  larger than the requested one.\r\n        //\r\n        // In summary, we need to find an element in an array, returning the index of the smallest value that is larger if\r\n        // it is not found, unless said value doesn't exist (e.g. when all values are smaller). Arrays.findUpperBound does\r\n        // exactly this.\r\n\r\n        uint256 index = snapshots.ids.findUpperBound(snapshotId);\r\n\r\n        if (index == snapshots.ids.length) {\r\n            return (false, 0);\r\n        } else {\r\n            return (true, snapshots.values[index]);\r\n        }\r\n    }\r\n\r\n    function _updateAccountSnapshot(address account) private {\r\n        _updateSnapshot(_accountBalanceSnapshots[account], balanceOf(account));\r\n    }\r\n\r\n    function _updateTotalSupplySnapshot() private {\r\n        _updateSnapshot(_totalSupplySnapshots, totalSupply());\r\n    }\r\n\r\n    function _updateSnapshot(Snapshots storage snapshots, uint256 currentValue) private {\r\n        uint256 currentId = _getCurrentSnapshotId();\r\n        if (_lastSnapshotId(snapshots.ids) < currentId) {\r\n            snapshots.ids.push(currentId);\r\n            snapshots.values.push(currentValue);\r\n        }\r\n    }\r\n\r\n    function _lastSnapshotId(uint256[] storage ids) private view returns (uint256) {\r\n        if (ids.length == 0) {\r\n            return 0;\r\n        } else {\r\n            return ids[ids.length - 1];\r\n        }\r\n    }\r\n\r\n    /**\r\n     * @dev See {IERC777-send}.\r\n     *\r\n     * Also emits a {IERC20-Transfer} event for ERC20 compatibility.\r\n     */\r\n    function send(\r\n        address recipient,\r\n        uint256 amount,\r\n        bytes memory data\r\n    ) public virtual override {\r\n        _send(_msgSender(), recipient, amount, data, \"\", true);\r\n    }\r\n\r\n    /**\r\n     * @dev See {IERC20-transfer}.\r\n     *\r\n     * Unlike `send`, `recipient` is _not_ required to implement the {IERC777Recipient}\r\n     * interface if it is a contract.\r\n     *\r\n     * Also emits a {Sent} event.\r\n     */\r\n    function transfer(address recipient, uint256 amount) public virtual override returns (bool) {\r\n        require(recipient != address(0), \"ERC777: transfer to the zero address\");\r\n\r\n        address from = _msgSender();\r\n\r\n        _callTokensToSend(from, from, recipient, amount, \"\", \"\");\r\n\r\n        _move(from, from, recipient, amount, \"\", \"\");\r\n\r\n        _callTokensReceived(from, from, recipient, amount, \"\", \"\", false);\r\n\r\n        return true;\r\n    }\r\n\r\n    /**\r\n     * @dev See {IERC777-burn}.\r\n     *\r\n     * Also emits a {IERC20-Transfer} event for ERC20 compatibility.\r\n     */\r\n    function burn(uint256 amount, bytes memory data) public virtual override {\r\n        _burn(_msgSender(), amount, data, \"\");\r\n    }\r\n\r\n    /**\r\n     * @dev See {IERC777-isOperatorFor}.\r\n     */\r\n    function isOperatorFor(address operator, address tokenHolder) public view virtual override returns (bool) {\r\n        return\r\n            operator == tokenHolder ||\r\n            (_defaultOperators[operator] && !_revokedDefaultOperators[tokenHolder][operator]) ||\r\n            _operators[tokenHolder][operator];\r\n    }\r\n\r\n    /**\r\n     * @dev See {IERC777-authorizeOperator}.\r\n     */\r\n    function authorizeOperator(address operator) public virtual override {\r\n        require(_msgSender() != operator, \"ERC777: authorizing self as operator\");\r\n\r\n        if (_defaultOperators[operator]) {\r\n            delete _revokedDefaultOperators[_msgSender()][operator];\r\n        } else {\r\n            _operators[_msgSender()][operator] = true;\r\n        }\r\n\r\n        emit AuthorizedOperator(operator, _msgSender());\r\n    }\r\n\r\n    /**\r\n     * @dev See {IERC777-revokeOperator}.\r\n     */\r\n    function revokeOperator(address operator) public virtual override {\r\n        require(operator != _msgSender(), \"ERC777: revoking self as operator\");\r\n\r\n        if (_defaultOperators[operator]) {\r\n            _revokedDefaultOperators[_msgSender()][operator] = true;\r\n        } else {\r\n            delete _operators[_msgSender()][operator];\r\n        }\r\n\r\n        emit RevokedOperator(operator, _msgSender());\r\n    }\r\n\r\n    /**\r\n     * @dev See {IERC777-defaultOperators}.\r\n     */\r\n    function defaultOperators() public view virtual override returns (address[] memory) {\r\n        return _defaultOperatorsArray;\r\n    }\r\n\r\n    /**\r\n     * @dev See {IERC777-operatorSend}.\r\n     *\r\n     * Emits {Sent} and {IERC20-Transfer} events.\r\n     */\r\n    function operatorSend(\r\n        address sender,\r\n        address recipient,\r\n        uint256 amount,\r\n        bytes memory data,\r\n        bytes memory operatorData\r\n    ) public virtual override {\r\n        require(isOperatorFor(_msgSender(), sender), \"ERC777: caller is not an operator for holder\");\r\n        _send(sender, recipient, amount, data, operatorData, true);\r\n    }\r\n\r\n    /**\r\n     * @dev See {IERC777-operatorBurn}.\r\n     *\r\n     * Emits {Burned} and {IERC20-Transfer} events.\r\n     */\r\n    function operatorBurn(\r\n        address account,\r\n        uint256 amount,\r\n        bytes memory data,\r\n        bytes memory operatorData\r\n    ) public virtual override {\r\n        require(isOperatorFor(_msgSender(), account), \"ERC777: caller is not an operator for holder\");\r\n        _burn(account, amount, data, operatorData);\r\n    }\r\n\r\n    /**\r\n     * @dev See {IERC20-allowance}.\r\n     *\r\n     * Note that operator and allowance concepts are orthogonal: operators may\r\n     * not have allowance, and accounts with allowance may not be operators\r\n     * themselves.\r\n     */\r\n    function allowance(address holder, address spender) public view virtual override returns (uint256) {\r\n        return _allowances[holder][spender];\r\n    }\r\n\r\n    /**\r\n     * @dev See {IERC20-approve}.\r\n     *\r\n     * Note that accounts cannot have allowance issued by their operators.\r\n     */\r\n    function approve(address spender, uint256 value) public virtual override returns (bool) {\r\n        address holder = _msgSender();\r\n        _approve(holder, spender, value);\r\n        return true;\r\n    }\r\n    \r\n     /**\r\n     * @dev Atomically increases the allowance granted to `spender` by the caller.\r\n     *\r\n     * This is an alternative to {approve} that can be used as a mitigation for\r\n     * problems described in {IERC20-approve}.\r\n     *\r\n     * Emits an {Approval} event indicating the updated allowance.\r\n     *\r\n     * Requirements:\r\n     *\r\n     * - `spender` cannot be the zero address.\r\n     */\r\n    function increaseAllowance(address spender, uint256 addedValue) public virtual returns (bool) {\r\n        _approve(_msgSender(), spender, _allowances[_msgSender()][spender] + addedValue);\r\n        return true;\r\n    }\r\n\r\n    /**\r\n     * @dev Atomically decreases the allowance granted to `spender` by the caller.\r\n     *\r\n     * This is an alternative to {approve} that can be used as a mitigation for\r\n     * problems described in {IERC20-approve}.\r\n     *\r\n     * Emits an {Approval} event indicating the updated allowance.\r\n     *\r\n     * Requirements:\r\n     *\r\n     * - `spender` cannot be the zero address.\r\n     * - `spender` must have allowance for the caller of at least\r\n     * `subtractedValue`.\r\n     */\r\n    function decreaseAllowance(address spender, uint256 subtractedValue) public virtual returns (bool) {\r\n        uint256 currentAllowance = _allowances[_msgSender()][spender];\r\n        require(currentAllowance >= subtractedValue, \"ERC20: decreased allowance below zero\");\r\n        unchecked {\r\n            _approve(_msgSender(), spender, currentAllowance - subtractedValue);\r\n        }\r\n\r\n        return true;\r\n    }\r\n\r\n    /**\r\n     * @dev See {IERC20-transferFrom}.\r\n     *\r\n     * Note that operator and allowance concepts are orthogonal: operators cannot\r\n     * call `transferFrom` (unless they have allowance), and accounts with\r\n     * allowance cannot call `operatorSend` (unless they are operators).\r\n     *\r\n     * Emits {Sent}, {IERC20-Transfer} and {IERC20-Approval} events.\r\n     */\r\n    function transferFrom(\r\n        address holder,\r\n        address recipient,\r\n        uint256 amount\r\n    ) public virtual override returns (bool) {\r\n        require(recipient != address(0), \"ERC777: transfer to the zero address\");\r\n        require(holder != address(0), \"ERC777: transfer from the zero address\");\r\n\r\n        address spender = _msgSender();\r\n\r\n        _callTokensToSend(spender, holder, recipient, amount, \"\", \"\");\r\n\r\n        _move(spender, holder, recipient, amount, \"\", \"\");\r\n\r\n        uint256 currentAllowance = _allowances[holder][spender];\r\n        require(currentAllowance >= amount, \"ERC777: transfer amount exceeds allowance\");\r\n        _approve(holder, spender, currentAllowance - amount);\r\n\r\n        _callTokensReceived(spender, holder, recipient, amount, \"\", \"\", false);\r\n\r\n        return true;\r\n    }\r\n    \r\n    /**\r\n     * @dev See {IERC777Permit-permit}.\r\n     */\r\n    function permit(\r\n        address owner,\r\n        address spender,\r\n        uint256 value,\r\n        uint256 deadline,\r\n        uint8 v,\r\n        bytes32 r,\r\n        bytes32 s\r\n    ) public virtual override {\r\n        require(block.timestamp <= deadline, \"ERC20Permit: expired deadline\");\r\n\r\n        bytes32 structHash = keccak256(abi.encode(_PERMIT_TYPEHASH, owner, spender, value, _useNonce(owner), deadline));\r\n\r\n        bytes32 hash = _hashTypedDataV4(structHash);\r\n\r\n        address signer = ECDSA.recover(hash, v, r, s);\r\n        require(signer == owner, \"ERC20Permit: invalid signature\");\r\n\r\n        _approve(owner, spender, value);\r\n    }\r\n\r\n    /**\r\n     * @dev See {IERC777Permit-nonces}.\r\n     */\r\n    function nonces(address owner) public view virtual override returns (uint256) {\r\n        return _nonces[owner].current();\r\n    }\r\n\r\n    /**\r\n     * @dev See {IERC777Permit-DOMAIN_SEPARATOR}.\r\n     */\r\n    // solhint-disable-next-line func-name-mixedcase\r\n    function DOMAIN_SEPARATOR() external view override returns (bytes32) {\r\n        return _domainSeparatorV4();\r\n    }\r\n\r\n    /**\r\n     * @dev \"Consume a nonce\": return the current value and increment.\r\n     *\r\n     * _Available since v4.1._\r\n     */\r\n    function _useNonce(address owner) internal virtual returns (uint256 current) {\r\n        Counters.Counter storage nonce = _nonces[owner];\r\n        current = nonce.current();\r\n        nonce.increment();\r\n    }\r\n    \r\n    /**\r\n     * @dev Creates `amount` tokens and assigns them to `account`, increasing\r\n     * the total supply.\r\n     *\r\n     * If a send hook is registered for `account`, the corresponding function\r\n     * will be called with `operator`, `data` and `operatorData`.\r\n     *\r\n     * See {IERC777Sender} and {IERC777Recipient}.\r\n     *\r\n     * Emits {Minted} and {IERC20-Transfer} events.\r\n     *\r\n     * Requirements\r\n     *\r\n     * - `account` cannot be the zero address.\r\n     * - if `account` is a contract, it must implement the {IERC777Recipient}\r\n     * interface.\r\n     */\r\n    function _mint(\r\n        address account,\r\n        uint256 amount,\r\n        bytes memory userData,\r\n        bytes memory operatorData\r\n    ) internal virtual {\r\n        _mint(account, amount, userData, operatorData, true);\r\n    }\r\n\r\n    /**\r\n     * @dev Creates `amount` tokens and assigns them to `account`, increasing\r\n     * the total supply.\r\n     *\r\n     * If `requireReceptionAck` is set to true, and if a send hook is\r\n     * registered for `account`, the corresponding function will be called with\r\n     * `operator`, `data` and `operatorData`.\r\n     *\r\n     * See {IERC777Sender} and {IERC777Recipient}.\r\n     *\r\n     * Emits {Minted} and {IERC20-Transfer} events.\r\n     *\r\n     * Requirements\r\n     *\r\n     * - `account` cannot be the zero address.\r\n     * - if `account` is a contract, it must implement the {IERC777Recipient}\r\n     * interface.\r\n     */\r\n    function _mint(\r\n        address account,\r\n        uint256 amount,\r\n        bytes memory userData,\r\n        bytes memory operatorData,\r\n        bool requireReceptionAck\r\n    ) internal virtual {\r\n        require(account != address(0), \"ERC777: mint to the zero address\");\r\n\r\n        address operator = _msgSender();\r\n\r\n        _beforeTokenTransfer(operator, address(0), account, amount);\r\n\r\n        // Update state variables\r\n        _totalSupply += amount;\r\n        _balances[account] += amount;\r\n\r\n        _callTokensReceived(operator, address(0), account, amount, userData, operatorData, requireReceptionAck);\r\n\r\n        emit Minted(operator, account, amount, userData, operatorData);\r\n        emit Transfer(address(0), account, amount);\r\n        \r\n        _afterTokenTransfer(operator, address(0), account, amount);\r\n    }\r\n\r\n    /**\r\n     * @dev Send tokens\r\n     * @param from address token holder address\r\n     * @param to address recipient address\r\n     * @param amount uint256 amount of tokens to transfer\r\n     * @param userData bytes extra information provided by the token holder (if any)\r\n     * @param operatorData bytes extra information provided by the operator (if any)\r\n     * @param requireReceptionAck if true, contract recipients are required to implement ERC777TokensRecipient\r\n     */\r\n    function _send(\r\n        address from,\r\n        address to,\r\n        uint256 amount,\r\n        bytes memory userData,\r\n        bytes memory operatorData,\r\n        bool requireReceptionAck\r\n    ) internal virtual {\r\n        require(from != address(0), \"ERC777: send from the zero address\");\r\n        require(to != address(0), \"ERC777: send to the zero address\");\r\n\r\n        address operator = _msgSender();\r\n\r\n        _callTokensToSend(operator, from, to, amount, userData, operatorData);\r\n\r\n        _move(operator, from, to, amount, userData, operatorData);\r\n\r\n        _callTokensReceived(operator, from, to, amount, userData, operatorData, requireReceptionAck);\r\n    }\r\n\r\n    /**\r\n     * @dev Burn tokens\r\n     * @param from address token holder address\r\n     * @param amount uint256 amount of tokens to burn\r\n     * @param data bytes extra information provided by the token holder\r\n     * @param operatorData bytes extra information provided by the operator (if any)\r\n     */\r\n    function _burn(\r\n        address from,\r\n        uint256 amount,\r\n        bytes memory data,\r\n        bytes memory operatorData\r\n    ) internal virtual {\r\n        require(from != address(0), \"ERC777: burn from the zero address\");\r\n\r\n        address operator = _msgSender();\r\n\r\n        _callTokensToSend(operator, from, address(0), amount, data, operatorData);\r\n\r\n        _beforeTokenTransfer(operator, from, address(0), amount);\r\n\r\n        // Update state variables\r\n        uint256 fromBalance = _balances[from];\r\n        require(fromBalance >= amount, \"ERC777: burn amount exceeds balance\");\r\n        unchecked {\r\n            _balances[from] = fromBalance - amount;\r\n        }\r\n        _totalSupply -= amount;\r\n         \r\n        emit Burned(operator, from, amount, data, operatorData);\r\n        emit Transfer(from, address(0), amount);\r\n        \r\n        _afterTokenTransfer(operator, from, address(0), amount);\r\n    }\r\n\r\n    function _move(\r\n        address operator,\r\n        address from,\r\n        address to,\r\n        uint256 amount,\r\n        bytes memory userData,\r\n        bytes memory operatorData\r\n    ) private {\r\n        _beforeTokenTransfer(operator, from, to, amount);\r\n\r\n        uint256 fromBalance = _balances[from];\r\n        require(fromBalance >= amount, \"ERC777: transfer amount exceeds balance\");\r\n        unchecked {\r\n            _balances[from] = fromBalance - amount;\r\n        }\r\n        _balances[to] += amount;\r\n\r\n        emit Sent(operator, from, to, amount, userData, operatorData);\r\n        emit Transfer(from, to, amount);\r\n        \r\n        _afterTokenTransfer(operator, from, to, amount);\r\n    }\r\n\r\n    /**\r\n     * @dev See {ERC20-_approve}.\r\n     *\r\n     * Note that accounts cannot have allowance issued by their operators.\r\n     */\r\n    function _approve(\r\n        address holder,\r\n        address spender,\r\n        uint256 value\r\n    ) internal {\r\n        require(holder != address(0), \"ERC777: approve from the zero address\");\r\n        require(spender != address(0), \"ERC777: approve to the zero address\");\r\n\r\n        _allowances[holder][spender] = value;\r\n        emit Approval(holder, spender, value);\r\n    }\r\n\r\n    /**\r\n     * @dev Call from.tokensToSend() if the interface is registered\r\n     * @param operator address operator requesting the transfer\r\n     * @param from address token holder address\r\n     * @param to address recipient address\r\n     * @param amount uint256 amount of tokens to transfer\r\n     * @param userData bytes extra information provided by the token holder (if any)\r\n     * @param operatorData bytes extra information provided by the operator (if any)\r\n     */\r\n    function _callTokensToSend(\r\n        address operator,\r\n        address from,\r\n        address to,\r\n        uint256 amount,\r\n        bytes memory userData,\r\n        bytes memory operatorData\r\n    ) private {\r\n        address implementer = _ERC1820_REGISTRY.getInterfaceImplementer(from, _TOKENS_SENDER_INTERFACE_HASH);\r\n        if (implementer != address(0)) {\r\n            IERC777Sender(implementer).tokensToSend(operator, from, to, amount, userData, operatorData);\r\n        }\r\n    }\r\n\r\n    /**\r\n     * @dev Call to.tokensReceived() if the interface is registered. Reverts if the recipient is a contract but\r\n     * tokensReceived() was not registered for the recipient\r\n     * @param operator address operator requesting the transfer\r\n     * @param from address token holder address\r\n     * @param to address recipient address\r\n     * @param amount uint256 amount of tokens to transfer\r\n     * @param userData bytes extra information provided by the token holder (if any)\r\n     * @param operatorData bytes extra information provided by the operator (if any)\r\n     * @param requireReceptionAck if true, contract recipients are required to implement ERC777TokensRecipient\r\n     */\r\n    function _callTokensReceived(\r\n        address operator,\r\n        address from,\r\n        address to,\r\n        uint256 amount,\r\n        bytes memory userData,\r\n        bytes memory operatorData,\r\n        bool requireReceptionAck\r\n    ) private {\r\n        address implementer = _ERC1820_REGISTRY.getInterfaceImplementer(to, _TOKENS_RECIPIENT_INTERFACE_HASH);\r\n        if (implementer != address(0)) {\r\n            IERC777Recipient(implementer).tokensReceived(operator, from, to, amount, userData, operatorData);\r\n        } else if (requireReceptionAck) {\r\n            require(!to.isContract(), \"ERC777: token recipient contract has no implementer for ERC777TokensRecipient\");\r\n        }\r\n    }\r\n\r\n    /**\r\n     * @dev Hook that is called before any token transfer. This includes\r\n     * calls to {send}, {transfer}, {operatorSend}, minting and burning.\r\n     *\r\n     * Calling conditions:\r\n     *\r\n     * - when `from` and `to` are both non-zero, `amount` of ``from``'s tokens\r\n     * will be to transferred to `to`.\r\n     * - when `from` is zero, `amount` tokens will be minted for `to`.\r\n     * - when `to` is zero, `amount` of ``from``'s tokens will be burned.\r\n     * - `from` and `to` are never both zero.\r\n     *\r\n     * Update balance and/or total supply snapshots before the values are modified. This is implemented\r\n     * in the _beforeTokenTransfer hook, which is executed for _mint, _burn, and _transfer operations.\r\n     * \r\n     * To learn more about hooks, head to xref:ROOT:extending-contracts.adoc#using-hooks[Using Hooks].\r\n     */\r\n     \r\n    function _beforeTokenTransfer(\r\n        address operator,\r\n        address from,\r\n        address to,\r\n        uint256 amount\r\n    ) internal virtual {\r\n         if (from == address(0)) {\r\n            // mint\r\n            _updateAccountSnapshot(to);\r\n            _updateTotalSupplySnapshot();\r\n        } else if (to == address(0)) {\r\n            // burn\r\n            _updateAccountSnapshot(from);\r\n            _updateTotalSupplySnapshot();\r\n        } else {\r\n            // transfer\r\n            _updateAccountSnapshot(from);\r\n            _updateAccountSnapshot(to);\r\n        }\r\n    }\r\n    \r\n     /**\r\n     * @dev Hook that is called after any transfer of tokens. This includes\r\n     * minting and burning.\r\n     *\r\n     * Calling conditions:\r\n     *\r\n     * - when `from` and `to` are both non-zero, `amount` of ``from``'s tokens\r\n     * has been transferred to `to`.\r\n     * - when `from` is zero, `amount` tokens have been minted for `to`.\r\n     * - when `to` is zero, `amount` of ``from``'s tokens have been burned.\r\n     * - `from` and `to` are never both zero.\r\n     *\r\n     * To learn more about hooks, head to xref:ROOT:extending-contracts.adoc#using-hooks[Using Hooks].\r\n     */\r\n    function _afterTokenTransfer(\r\n        address operator,\r\n        address from,\r\n        address to,\r\n        uint256 amount\r\n    ) internal virtual {}\r\n}\r\n",
  "sourcePath": "C:\\Users\\dimit\\OneDrive\\Documentos\\GitHub\\medshare\\projects\\solidity\\contracts\\token\\ERC777\\ERC777.sol",
  "compiler": {
    "name": "solc",
    "version": "0.8.4+commit.c7e474f2.Emscripten.clang"
  },
  "schemaVersion": "3.4.1",
  "updatedAt": "2021-07-12T17:52:55.902Z",
  "devdoc": {
    "details": "Implementation of the {IERC777} interface and this contract extends an ERC20 token with a snapshot mechanism. When a snapshot is created, the balances and total supply at the time are recorded for later access. This implementation is agnostic to the way tokens are created. This means that a supply mechanism has to be added in a derived contract using {_mint}. Support for ERC20 is included in this contract, as specified by the EIP: both the ERC777 and ERC20 interfaces can be safely used when interacting with it. Both {IERC777-Sent} and {IERC20-Transfer} events are emitted on token movements. Additionally, the {IERC777-granularity} value is hard-coded to `1`, meaning that there are no special restrictions in the amount of tokens that created, moved, or destroyed. This makes integration with ERC20 applications seamless.   This can be used to safely create mechanisms based on token balances such as trustless dividends or weighted voting. In naive implementations it's possible to perform a \"double spend\" attack by reusing the same balance from different accounts. By using snapshots to calculate dividends or voting power, those attacks no longer apply. It can also be used to create an efficient ERC20 forking mechanism. Snapshots are created by the internal {_snapshot} function, which will emit the {Snapshot} event and return a snapshot id. To get the total supply at the time of a snapshot, call the function {totalSupplyAt} with the snapshot id. To get the balance of an account at the time of a snapshot, call the {balanceOfAt} function with the snapshot id and the account address. NOTE: Snapshot policy can be customized by overriding the {_getCurrentSnapshotId} method. For example, having it return `block.number` will trigger the creation of snapshot at the begining of each new block. When overridding this function, be careful about the monotonicity of its result. Non-monotonic snapshot ids will break the contract. Implementing snapshots for every block using this method will incur significant gas costs. For a gas-efficient alternative consider {ERC20Votes}. ==== Gas Costs Snapshots are efficient. Snapshot creation is _O(1)_. Retrieval of balances or total supply from a snapshot is _O(log n)_ in the number of snapshots that have been created, although _n_ for a specific account will generally be much smaller since identical balances in subsequent snapshots are stored as a single entry. There is a constant overhead for normal ERC20 transfers due to the additional snapshot bookkeeping. This overhead is only significant for the first transfer that immediately follows a snapshot for a particular account. Subsequent transfers will have normal cost until the next snapshot, and so on.",
    "events": {
      "Snapshot(uint256)": {
        "details": "Emitted by {_snapshot} when a snapshot identified by `id` is created."
      }
    },
    "kind": "dev",
    "methods": {
      "DOMAIN_SEPARATOR()": {
        "details": "See {IERC777Permit-DOMAIN_SEPARATOR}."
      },
      "allowance(address,address)": {
        "details": "See {IERC20-allowance}. Note that operator and allowance concepts are orthogonal: operators may not have allowance, and accounts with allowance may not be operators themselves."
      },
      "approve(address,uint256)": {
        "details": "See {IERC20-approve}. Note that accounts cannot have allowance issued by their operators."
      },
      "authorizeOperator(address)": {
        "details": "See {IERC777-authorizeOperator}."
      },
      "balanceOf(address)": {
        "details": "Returns the amount of tokens owned by an account (`tokenHolder`)."
      },
      "balanceOfAt(address,uint256)": {
        "details": "Retrieves the balance of `account` at the time `snapshotId` was created."
      },
      "burn(uint256,bytes)": {
        "details": "See {IERC777-burn}. Also emits a {IERC20-Transfer} event for ERC20 compatibility."
      },
      "constructor": {
        "details": "Initializes the {EIP712} domain separator using the `name` parameter, and setting `version` to `\"1\"`.`defaultOperators` may be an empty array.  It's a good idea to use the same `name` that is defined as the ERC20 token name."
      },
      "decimals()": {
        "details": "See {ERC20-decimals}. Always returns 18, as per the [ERC777 EIP](https://eips.ethereum.org/EIPS/eip-777#backward-compatibility)."
      },
      "decreaseAllowance(address,uint256)": {
        "details": "Atomically decreases the allowance granted to `spender` by the caller. This is an alternative to {approve} that can be used as a mitigation for problems described in {IERC20-approve}. Emits an {Approval} event indicating the updated allowance. Requirements: - `spender` cannot be the zero address. - `spender` must have allowance for the caller of at least `subtractedValue`."
      },
      "defaultOperators()": {
        "details": "See {IERC777-defaultOperators}."
      },
      "granularity()": {
        "details": "See {IERC777-granularity}. This implementation always returns `1`."
      },
      "increaseAllowance(address,uint256)": {
        "details": "Atomically increases the allowance granted to `spender` by the caller. This is an alternative to {approve} that can be used as a mitigation for problems described in {IERC20-approve}. Emits an {Approval} event indicating the updated allowance. Requirements: - `spender` cannot be the zero address."
      },
      "isOperatorFor(address,address)": {
        "details": "See {IERC777-isOperatorFor}."
      },
      "name()": {
        "details": "See {IERC777-name}."
      },
      "nonces(address)": {
        "details": "See {IERC777Permit-nonces}."
      },
      "operatorBurn(address,uint256,bytes,bytes)": {
        "details": "See {IERC777-operatorBurn}. Emits {Burned} and {IERC20-Transfer} events."
      },
      "operatorSend(address,address,uint256,bytes,bytes)": {
        "details": "See {IERC777-operatorSend}. Emits {Sent} and {IERC20-Transfer} events."
      },
      "owner()": {
        "details": "Returns the address of the current owner."
      },
      "permit(address,address,uint256,uint256,uint8,bytes32,bytes32)": {
        "details": "See {IERC777Permit-permit}."
      },
      "renounceOwnership()": {
        "details": "Leaves the contract without owner. It will not be possible to call `onlyOwner` functions anymore. Can only be called by the current owner. NOTE: Renouncing ownership will leave the contract without an owner, thereby removing any functionality that is only available to the owner."
      },
      "revokeOperator(address)": {
        "details": "See {IERC777-revokeOperator}."
      },
      "send(address,uint256,bytes)": {
        "details": "See {IERC777-send}. Also emits a {IERC20-Transfer} event for ERC20 compatibility."
      },
      "symbol()": {
        "details": "See {IERC777-symbol}."
      },
      "totalSupply()": {
        "details": "See {IERC777-totalSupply}."
      },
      "totalSupplyAt(uint256)": {
        "details": "Retrieves the total supply at the time `snapshotId` was created."
      },
      "transfer(address,uint256)": {
        "details": "See {IERC20-transfer}. Unlike `send`, `recipient` is _not_ required to implement the {IERC777Recipient} interface if it is a contract. Also emits a {Sent} event."
      },
      "transferFrom(address,address,uint256)": {
        "details": "See {IERC20-transferFrom}. Note that operator and allowance concepts are orthogonal: operators cannot call `transferFrom` (unless they have allowance), and accounts with allowance cannot call `operatorSend` (unless they are operators). Emits {Sent}, {IERC20-Transfer} and {IERC20-Approval} events."
      },
      "transferOwnership(address)": {
        "details": "Transfers ownership of the contract to a new account (`newOwner`). Can only be called by the current owner."
      }
    },
    "version": 1
  },
  "userdoc": {
    "kind": "user",
    "methods": {},
    "version": 1
  }
}