{
  "contractName": "MedShareToken",
  "abi": [
    {
      "inputs": [
        {
          "internalType": "uint256",
          "name": "initialSupply",
          "type": "uint256"
        },
        {
          "internalType": "address[]",
          "name": "defaultOperators",
          "type": "address[]"
        }
      ],
      "stateMutability": "nonpayable",
      "type": "constructor"
    },
    {
      "anonymous": false,
      "inputs": [
        {
          "indexed": true,
          "internalType": "address",
          "name": "owner",
          "type": "address"
        },
        {
          "indexed": true,
          "internalType": "address",
          "name": "spender",
          "type": "address"
        },
        {
          "indexed": false,
          "internalType": "uint256",
          "name": "value",
          "type": "uint256"
        }
      ],
      "name": "Approval",
      "type": "event"
    },
    {
      "anonymous": false,
      "inputs": [
        {
          "indexed": true,
          "internalType": "address",
          "name": "operator",
          "type": "address"
        },
        {
          "indexed": true,
          "internalType": "address",
          "name": "tokenHolder",
          "type": "address"
        }
      ],
      "name": "AuthorizedOperator",
      "type": "event"
    },
    {
      "anonymous": false,
      "inputs": [
        {
          "indexed": true,
          "internalType": "address",
          "name": "operator",
          "type": "address"
        },
        {
          "indexed": true,
          "internalType": "address",
          "name": "from",
          "type": "address"
        },
        {
          "indexed": false,
          "internalType": "uint256",
          "name": "amount",
          "type": "uint256"
        },
        {
          "indexed": false,
          "internalType": "bytes",
          "name": "data",
          "type": "bytes"
        },
        {
          "indexed": false,
          "internalType": "bytes",
          "name": "operatorData",
          "type": "bytes"
        }
      ],
      "name": "Burned",
      "type": "event"
    },
    {
      "anonymous": false,
      "inputs": [
        {
          "indexed": true,
          "internalType": "address",
          "name": "operator",
          "type": "address"
        },
        {
          "indexed": true,
          "internalType": "address",
          "name": "to",
          "type": "address"
        },
        {
          "indexed": false,
          "internalType": "uint256",
          "name": "amount",
          "type": "uint256"
        },
        {
          "indexed": false,
          "internalType": "bytes",
          "name": "data",
          "type": "bytes"
        },
        {
          "indexed": false,
          "internalType": "bytes",
          "name": "operatorData",
          "type": "bytes"
        }
      ],
      "name": "Minted",
      "type": "event"
    },
    {
      "anonymous": false,
      "inputs": [
        {
          "indexed": true,
          "internalType": "address",
          "name": "previousOwner",
          "type": "address"
        },
        {
          "indexed": true,
          "internalType": "address",
          "name": "newOwner",
          "type": "address"
        }
      ],
      "name": "OwnershipTransferred",
      "type": "event"
    },
    {
      "anonymous": false,
      "inputs": [
        {
          "indexed": true,
          "internalType": "address",
          "name": "operator",
          "type": "address"
        },
        {
          "indexed": true,
          "internalType": "address",
          "name": "tokenHolder",
          "type": "address"
        }
      ],
      "name": "RevokedOperator",
      "type": "event"
    },
    {
      "anonymous": false,
      "inputs": [
        {
          "indexed": true,
          "internalType": "address",
          "name": "operator",
          "type": "address"
        },
        {
          "indexed": true,
          "internalType": "address",
          "name": "from",
          "type": "address"
        },
        {
          "indexed": true,
          "internalType": "address",
          "name": "to",
          "type": "address"
        },
        {
          "indexed": false,
          "internalType": "uint256",
          "name": "amount",
          "type": "uint256"
        },
        {
          "indexed": false,
          "internalType": "bytes",
          "name": "data",
          "type": "bytes"
        },
        {
          "indexed": false,
          "internalType": "bytes",
          "name": "operatorData",
          "type": "bytes"
        }
      ],
      "name": "Sent",
      "type": "event"
    },
    {
      "anonymous": false,
      "inputs": [
        {
          "indexed": false,
          "internalType": "uint256",
          "name": "id",
          "type": "uint256"
        }
      ],
      "name": "Snapshot",
      "type": "event"
    },
    {
      "anonymous": false,
      "inputs": [
        {
          "indexed": true,
          "internalType": "address",
          "name": "from",
          "type": "address"
        },
        {
          "indexed": true,
          "internalType": "address",
          "name": "to",
          "type": "address"
        },
        {
          "indexed": false,
          "internalType": "uint256",
          "name": "value",
          "type": "uint256"
        }
      ],
      "name": "Transfer",
      "type": "event"
    },
    {
      "inputs": [],
      "name": "DOMAIN_SEPARATOR",
      "outputs": [
        {
          "internalType": "bytes32",
          "name": "",
          "type": "bytes32"
        }
      ],
      "stateMutability": "view",
      "type": "function"
    },
    {
      "inputs": [
        {
          "internalType": "address",
          "name": "holder",
          "type": "address"
        },
        {
          "internalType": "address",
          "name": "spender",
          "type": "address"
        }
      ],
      "name": "allowance",
      "outputs": [
        {
          "internalType": "uint256",
          "name": "",
          "type": "uint256"
        }
      ],
      "stateMutability": "view",
      "type": "function"
    },
    {
      "inputs": [
        {
          "internalType": "address",
          "name": "spender",
          "type": "address"
        },
        {
          "internalType": "uint256",
          "name": "value",
          "type": "uint256"
        }
      ],
      "name": "approve",
      "outputs": [
        {
          "internalType": "bool",
          "name": "",
          "type": "bool"
        }
      ],
      "stateMutability": "nonpayable",
      "type": "function"
    },
    {
      "inputs": [
        {
          "internalType": "address",
          "name": "operator",
          "type": "address"
        }
      ],
      "name": "authorizeOperator",
      "outputs": [],
      "stateMutability": "nonpayable",
      "type": "function"
    },
    {
      "inputs": [
        {
          "internalType": "address",
          "name": "tokenHolder",
          "type": "address"
        }
      ],
      "name": "balanceOf",
      "outputs": [
        {
          "internalType": "uint256",
          "name": "",
          "type": "uint256"
        }
      ],
      "stateMutability": "view",
      "type": "function"
    },
    {
      "inputs": [
        {
          "internalType": "address",
          "name": "account",
          "type": "address"
        },
        {
          "internalType": "uint256",
          "name": "snapshotId",
          "type": "uint256"
        }
      ],
      "name": "balanceOfAt",
      "outputs": [
        {
          "internalType": "uint256",
          "name": "",
          "type": "uint256"
        }
      ],
      "stateMutability": "view",
      "type": "function"
    },
    {
      "inputs": [
        {
          "internalType": "uint256",
          "name": "amount",
          "type": "uint256"
        },
        {
          "internalType": "bytes",
          "name": "data",
          "type": "bytes"
        }
      ],
      "name": "burn",
      "outputs": [],
      "stateMutability": "nonpayable",
      "type": "function"
    },
    {
      "inputs": [],
      "name": "decimals",
      "outputs": [
        {
          "internalType": "uint8",
          "name": "",
          "type": "uint8"
        }
      ],
      "stateMutability": "pure",
      "type": "function"
    },
    {
      "inputs": [
        {
          "internalType": "address",
          "name": "spender",
          "type": "address"
        },
        {
          "internalType": "uint256",
          "name": "subtractedValue",
          "type": "uint256"
        }
      ],
      "name": "decreaseAllowance",
      "outputs": [
        {
          "internalType": "bool",
          "name": "",
          "type": "bool"
        }
      ],
      "stateMutability": "nonpayable",
      "type": "function"
    },
    {
      "inputs": [],
      "name": "defaultOperators",
      "outputs": [
        {
          "internalType": "address[]",
          "name": "",
          "type": "address[]"
        }
      ],
      "stateMutability": "view",
      "type": "function"
    },
    {
      "inputs": [],
      "name": "granularity",
      "outputs": [
        {
          "internalType": "uint256",
          "name": "",
          "type": "uint256"
        }
      ],
      "stateMutability": "view",
      "type": "function"
    },
    {
      "inputs": [
        {
          "internalType": "address",
          "name": "spender",
          "type": "address"
        },
        {
          "internalType": "uint256",
          "name": "addedValue",
          "type": "uint256"
        }
      ],
      "name": "increaseAllowance",
      "outputs": [
        {
          "internalType": "bool",
          "name": "",
          "type": "bool"
        }
      ],
      "stateMutability": "nonpayable",
      "type": "function"
    },
    {
      "inputs": [
        {
          "internalType": "address",
          "name": "operator",
          "type": "address"
        },
        {
          "internalType": "address",
          "name": "tokenHolder",
          "type": "address"
        }
      ],
      "name": "isOperatorFor",
      "outputs": [
        {
          "internalType": "bool",
          "name": "",
          "type": "bool"
        }
      ],
      "stateMutability": "view",
      "type": "function"
    },
    {
      "inputs": [],
      "name": "name",
      "outputs": [
        {
          "internalType": "string",
          "name": "",
          "type": "string"
        }
      ],
      "stateMutability": "view",
      "type": "function"
    },
    {
      "inputs": [
        {
          "internalType": "address",
          "name": "owner",
          "type": "address"
        }
      ],
      "name": "nonces",
      "outputs": [
        {
          "internalType": "uint256",
          "name": "",
          "type": "uint256"
        }
      ],
      "stateMutability": "view",
      "type": "function"
    },
    {
      "inputs": [
        {
          "internalType": "address",
          "name": "account",
          "type": "address"
        },
        {
          "internalType": "uint256",
          "name": "amount",
          "type": "uint256"
        },
        {
          "internalType": "bytes",
          "name": "data",
          "type": "bytes"
        },
        {
          "internalType": "bytes",
          "name": "operatorData",
          "type": "bytes"
        }
      ],
      "name": "operatorBurn",
      "outputs": [],
      "stateMutability": "nonpayable",
      "type": "function"
    },
    {
      "inputs": [
        {
          "internalType": "address",
          "name": "sender",
          "type": "address"
        },
        {
          "internalType": "address",
          "name": "recipient",
          "type": "address"
        },
        {
          "internalType": "uint256",
          "name": "amount",
          "type": "uint256"
        },
        {
          "internalType": "bytes",
          "name": "data",
          "type": "bytes"
        },
        {
          "internalType": "bytes",
          "name": "operatorData",
          "type": "bytes"
        }
      ],
      "name": "operatorSend",
      "outputs": [],
      "stateMutability": "nonpayable",
      "type": "function"
    },
    {
      "inputs": [],
      "name": "owner",
      "outputs": [
        {
          "internalType": "address",
          "name": "",
          "type": "address"
        }
      ],
      "stateMutability": "view",
      "type": "function"
    },
    {
      "inputs": [
        {
          "internalType": "address",
          "name": "owner",
          "type": "address"
        },
        {
          "internalType": "address",
          "name": "spender",
          "type": "address"
        },
        {
          "internalType": "uint256",
          "name": "value",
          "type": "uint256"
        },
        {
          "internalType": "uint256",
          "name": "deadline",
          "type": "uint256"
        },
        {
          "internalType": "uint8",
          "name": "v",
          "type": "uint8"
        },
        {
          "internalType": "bytes32",
          "name": "r",
          "type": "bytes32"
        },
        {
          "internalType": "bytes32",
          "name": "s",
          "type": "bytes32"
        }
      ],
      "name": "permit",
      "outputs": [],
      "stateMutability": "nonpayable",
      "type": "function"
    },
    {
      "inputs": [],
      "name": "renounceOwnership",
      "outputs": [],
      "stateMutability": "nonpayable",
      "type": "function"
    },
    {
      "inputs": [
        {
          "internalType": "address",
          "name": "operator",
          "type": "address"
        }
      ],
      "name": "revokeOperator",
      "outputs": [],
      "stateMutability": "nonpayable",
      "type": "function"
    },
    {
      "inputs": [
        {
          "internalType": "address",
          "name": "recipient",
          "type": "address"
        },
        {
          "internalType": "uint256",
          "name": "amount",
          "type": "uint256"
        },
        {
          "internalType": "bytes",
          "name": "data",
          "type": "bytes"
        }
      ],
      "name": "send",
      "outputs": [],
      "stateMutability": "nonpayable",
      "type": "function"
    },
    {
      "inputs": [],
      "name": "snapshot",
      "outputs": [],
      "stateMutability": "nonpayable",
      "type": "function"
    },
    {
      "inputs": [],
      "name": "symbol",
      "outputs": [
        {
          "internalType": "string",
          "name": "",
          "type": "string"
        }
      ],
      "stateMutability": "view",
      "type": "function"
    },
    {
      "inputs": [],
      "name": "totalSupply",
      "outputs": [
        {
          "internalType": "uint256",
          "name": "",
          "type": "uint256"
        }
      ],
      "stateMutability": "view",
      "type": "function"
    },
    {
      "inputs": [
        {
          "internalType": "uint256",
          "name": "snapshotId",
          "type": "uint256"
        }
      ],
      "name": "totalSupplyAt",
      "outputs": [
        {
          "internalType": "uint256",
          "name": "",
          "type": "uint256"
        }
      ],
      "stateMutability": "view",
      "type": "function"
    },
    {
      "inputs": [
        {
          "internalType": "address",
          "name": "recipient",
          "type": "address"
        },
        {
          "internalType": "uint256",
          "name": "amount",
          "type": "uint256"
        }
      ],
      "name": "transfer",
      "outputs": [
        {
          "internalType": "bool",
          "name": "",
          "type": "bool"
        }
      ],
      "stateMutability": "nonpayable",
      "type": "function"
    },
    {
      "inputs": [
        {
          "internalType": "address",
          "name": "holder",
          "type": "address"
        },
        {
          "internalType": "address",
          "name": "recipient",
          "type": "address"
        },
        {
          "internalType": "uint256",
          "name": "amount",
          "type": "uint256"
        }
      ],
      "name": "transferFrom",
      "outputs": [
        {
          "internalType": "bool",
          "name": "",
          "type": "bool"
        }
      ],
      "stateMutability": "nonpayable",
      "type": "function"
    },
    {
      "inputs": [
        {
          "internalType": "address",
          "name": "newOwner",
          "type": "address"
        }
      ],
      "name": "transferOwnership",
      "outputs": [],
      "stateMutability": "nonpayable",
      "type": "function"
    }
  ],
  "bytecode": "0x6101406040527f6e71edae12b1b97f4d1f60370fef10105fa2faae0126114a169c64845d6126c9610120908152503480156200003a57600080fd5b5060405162005d8b38038062005d8b833981810160405281019062000060919062000eaf565b6040518060400160405280600e81526020017f4d6564536861726520546f6b656e0000000000000000000000000000000000008152506040518060400160405280600481526020017f4d4453540000000000000000000000000000000000000000000000000000000081525082826040518060400160405280600181526020017f310000000000000000000000000000000000000000000000000000000000000081525060008280519060200120905060008280519060200120905060007f8b73c3c69bb8fe3d512ecc4cf759cc79239f7b179b0ffacaa9a75d522b39400f90508260c081815250508160e081815250504660a081815250506200016c8184846200043460201b60201c565b608081815250508061010081815250505050505050620001a1620001956200047060201b60201c565b6200047860201b60201c565b8260029080519060200190620001b992919062000c74565b508160039080519060200190620001d292919062000c74565b508060049080519060200190620001eb92919062000d05565b5060005b8151811015620002a85760016005600084848151811062000239577f4e487b7100000000000000000000000000000000000000000000000000000000600052603260045260246000fd5b602002602001015173ffffffffffffffffffffffffffffffffffffffff1673ffffffffffffffffffffffffffffffffffffffff16815260200190815260200160002060006101000a81548160ff02191690831515021790555080806200029f90620013c0565b915050620001ef565b50731820a4b7618bde71dce8cdc73aab6c95905fad2473ffffffffffffffffffffffffffffffffffffffff166329965a1d307fac7fbab5f54a3ca8194167523c6753bfeb96a445279294b6125b68cce2177054306040518463ffffffff1660e01b81526004016200031c9392919062001073565b600060405180830381600087803b1580156200033757600080fd5b505af11580156200034c573d6000803e3d6000fd5b50505050731820a4b7618bde71dce8cdc73aab6c95905fad2473ffffffffffffffffffffffffffffffffffffffff166329965a1d307faea199e31a596269b42cdafd93407f14436db6e4cad65417994c2eb37381e05a306040518463ffffffff1660e01b8152600401620003c39392919062001073565b600060405180830381600087803b158015620003de57600080fd5b505af1158015620003f3573d6000803e3d6000fd5b505050505050506200042c338360405180602001604052806000815250604051806020016040528060008152506200053c60201b60201c565b50506200157e565b6000838383463060405160200162000451959493929190620010b0565b6040516020818303038152906040528051906020012090509392505050565b600033905090565b60008060009054906101000a900473ffffffffffffffffffffffffffffffffffffffff169050816000806101000a81548173ffffffffffffffffffffffffffffffffffffffff021916908373ffffffffffffffffffffffffffffffffffffffff1602179055508173ffffffffffffffffffffffffffffffffffffffff168173ffffffffffffffffffffffffffffffffffffffff167f8be0079c531659141344cd1fd0a4f28419497f9722a3daafe3b4186f6b6457e060405160405180910390a35050565b620005528484848460016200055860201b60201c565b50505050565b600073ffffffffffffffffffffffffffffffffffffffff168573ffffffffffffffffffffffffffffffffffffffff161415620005cb576040517f08c379a0000000000000000000000000000000000000000000000000000000008152600401620005c2906200110d565b60405180910390fd5b6000620005dd6200047060201b60201c565b9050620005f481600088886200076f60201b60201c565b84600160008282546200060891906200123e565b9250508190555084600860008873ffffffffffffffffffffffffffffffffffffffff1673ffffffffffffffffffffffffffffffffffffffff16815260200190815260200160002060008282546200066091906200123e565b925050819055506200067f81600088888888886200085360201b60201c565b8573ffffffffffffffffffffffffffffffffffffffff168173ffffffffffffffffffffffffffffffffffffffff167f2fe5be0146f74c5bce36c0b80911af6c7d86ff27e89d5cfa61fc681327954e5d878787604051620006e2939291906200116e565b60405180910390a38573ffffffffffffffffffffffffffffffffffffffff16600073ffffffffffffffffffffffffffffffffffffffff167fddf252ad1be2c89b69c2b068fc378daa952ba7f163c4a11628f55a4df523b3ef876040516200074a919062001151565b60405180910390a362000767816000888862000a5160201b60201c565b505050505050565b600073ffffffffffffffffffffffffffffffffffffffff168373ffffffffffffffffffffffffffffffffffffffff161415620007cc57620007b68262000a5760201b60201c565b620007c662000aba60201b60201c565b6200084d565b600073ffffffffffffffffffffffffffffffffffffffff168273ffffffffffffffffffffffffffffffffffffffff1614156200082957620008138362000a5760201b60201c565b6200082362000aba60201b60201c565b6200084c565b6200083a8362000a5760201b60201c565b6200084b8262000a5760201b60201c565b5b5b50505050565b6000731820a4b7618bde71dce8cdc73aab6c95905fad2473ffffffffffffffffffffffffffffffffffffffff1663aabbb8ca877fb281fc8c12954d22544db45de3159a39272895b169a852b314f9cc762e44c53b6040518363ffffffff1660e01b8152600401620008c692919062001046565b60206040518083038186803b158015620008df57600080fd5b505afa158015620008f4573d6000803e3d6000fd5b505050506040513d601f19601f820116820180604052508101906200091a919062000e83565b9050600073ffffffffffffffffffffffffffffffffffffffff168173ffffffffffffffffffffffffffffffffffffffff1614620009cf578073ffffffffffffffffffffffffffffffffffffffff166223de298989898989896040518763ffffffff1660e01b8152600401620009959695949392919062000fcb565b600060405180830381600087803b158015620009b057600080fd5b505af1158015620009c5573d6000803e3d6000fd5b5050505062000a47565b811562000a465762000a028673ffffffffffffffffffffffffffffffffffffffff1662000ade60201b620019851760201c565b1562000a45576040517f08c379a000000000000000000000000000000000000000000000000000000000815260040162000a3c906200112f565b60405180910390fd5b5b5b5050505050505050565b50505050565b62000ab7600b60008373ffffffffffffffffffffffffffffffffffffffff1673ffffffffffffffffffffffffffffffffffffffff16815260200190815260200160002062000aab8362000af160201b60201c565b62000b3a60201b60201c565b50565b62000adc600c62000ad062000bc660201b60201c565b62000b3a60201b60201c565b565b600080823b905060008111915050919050565b6000600860008373ffffffffffffffffffffffffffffffffffffffff1673ffffffffffffffffffffffffffffffffffffffff168152602001908152602001600020549050919050565b600062000b4c62000bd060201b60201c565b90508062000b638460000162000bee60201b60201c565b101562000bc15782600001819080600181540180825580915050600190039060005260206000200160009091909190915055826001018290806001815401808255809150506001900390600052602060002001600090919091909150555b505050565b6000600154905090565b600062000be9600e62000c6660201b620019981760201c565b905090565b6000808280549050141562000c07576000905062000c61565b816001838054905062000c1b91906200129b565b8154811062000c53577f4e487b7100000000000000000000000000000000000000000000000000000000600052603260045260246000fd5b906000526020600020015490505b919050565b600081600001549050919050565b82805462000c829062001354565b90600052602060002090601f01602090048101928262000ca6576000855562000cf2565b82601f1062000cc157805160ff191683800117855562000cf2565b8280016001018555821562000cf2579182015b8281111562000cf157825182559160200191906001019062000cd4565b5b50905062000d01919062000d94565b5090565b82805482825590600052602060002090810192821562000d81579160200282015b8281111562000d805782518260006101000a81548173ffffffffffffffffffffffffffffffffffffffff021916908373ffffffffffffffffffffffffffffffffffffffff1602179055509160200191906001019062000d26565b5b50905062000d90919062000d94565b5090565b5b8082111562000daf57600081600090555060010162000d95565b5090565b600062000dca62000dc484620011e2565b620011b9565b9050808382526020820190508285602086028201111562000dea57600080fd5b60005b8581101562000e1e578162000e03888262000e28565b84526020840193506020830192505060018101905062000ded565b5050509392505050565b60008151905062000e39816200154a565b92915050565b600082601f83011262000e5157600080fd5b815162000e6384826020860162000db3565b91505092915050565b60008151905062000e7d8162001564565b92915050565b60006020828403121562000e9657600080fd5b600062000ea68482850162000e28565b91505092915050565b6000806040838503121562000ec357600080fd5b600062000ed38582860162000e6c565b925050602083015167ffffffffffffffff81111562000ef157600080fd5b62000eff8582860162000e3f565b9150509250929050565b62000f1481620012d6565b82525050565b62000f2581620012ea565b82525050565b600062000f388262001211565b62000f4481856200121c565b935062000f568185602086016200131e565b62000f61816200149b565b840191505092915050565b600062000f7b6020836200122d565b915062000f8882620014ac565b602082019050919050565b600062000fa2604d836200122d565b915062000faf82620014d5565b606082019050919050565b62000fc58162001314565b82525050565b600060c08201905062000fe2600083018962000f09565b62000ff1602083018862000f09565b62001000604083018762000f09565b6200100f606083018662000fba565b818103608083015262001023818562000f2b565b905081810360a083015262001039818462000f2b565b9050979650505050505050565b60006040820190506200105d600083018562000f09565b6200106c602083018462000f1a565b9392505050565b60006060820190506200108a600083018662000f09565b62001099602083018562000f1a565b620010a8604083018462000f09565b949350505050565b600060a082019050620010c7600083018862000f1a565b620010d6602083018762000f1a565b620010e5604083018662000f1a565b620010f4606083018562000fba565b62001103608083018462000f09565b9695505050505050565b60006020820190508181036000830152620011288162000f6c565b9050919050565b600060208201905081810360008301526200114a8162000f93565b9050919050565b600060208201905062001168600083018462000fba565b92915050565b600060608201905062001185600083018662000fba565b818103602083015262001199818562000f2b565b90508181036040830152620011af818462000f2b565b9050949350505050565b6000620011c5620011d8565b9050620011d382826200138a565b919050565b6000604051905090565b600067ffffffffffffffff8211156200120057620011ff6200146c565b5b602082029050602081019050919050565b600081519050919050565b600082825260208201905092915050565b600082825260208201905092915050565b60006200124b8262001314565b9150620012588362001314565b9250827fffffffffffffffffffffffffffffffffffffffffffffffffffffffffffffffff0382111562001290576200128f6200140e565b5b828201905092915050565b6000620012a88262001314565b9150620012b58362001314565b925082821015620012cb57620012ca6200140e565b5b828203905092915050565b6000620012e382620012f4565b9050919050565b6000819050919050565b600073ffffffffffffffffffffffffffffffffffffffff82169050919050565b6000819050919050565b60005b838110156200133e57808201518184015260208101905062001321565b838111156200134e576000848401525b50505050565b600060028204905060018216806200136d57607f821691505b602082108114156200138457620013836200143d565b5b50919050565b62001395826200149b565b810181811067ffffffffffffffff82111715620013b757620013b66200146c565b5b80604052505050565b6000620013cd8262001314565b91507fffffffffffffffffffffffffffffffffffffffffffffffffffffffffffffffff8214156200140357620014026200140e565b5b600182019050919050565b7f4e487b7100000000000000000000000000000000000000000000000000000000600052601160045260246000fd5b7f4e487b7100000000000000000000000000000000000000000000000000000000600052602260045260246000fd5b7f4e487b7100000000000000000000000000000000000000000000000000000000600052604160045260246000fd5b6000601f19601f8301169050919050565b7f4552433737373a206d696e7420746f20746865207a65726f2061646472657373600082015250565b7f4552433737373a20746f6b656e20726563697069656e7420636f6e747261637460008201527f20686173206e6f20696d706c656d656e74657220666f7220455243373737546f60208201527f6b656e73526563697069656e7400000000000000000000000000000000000000604082015250565b6200155581620012d6565b81146200156157600080fd5b50565b6200156f8162001314565b81146200157b57600080fd5b50565b60805160a05160c05160e05161010051610120516147bd620015ce6000396000611271015260006121500152600061219201526000612171015260006120fd0152600061212501526147bd6000f3fe608060405234801561001057600080fd5b50600436106101cf5760003560e01c80638da5cb5b11610104578063a9059cbb116100a2578063f2fde38b11610071578063f2fde38b14610558578063fad8b32a14610574578063fc673c4f14610590578063fe9d9303146105ac576101cf565b8063a9059cbb146104ac578063d505accf146104dc578063d95b6371146104f8578063dd62ed3e14610528576101cf565b80639711715a116100de5780639711715a14610426578063981b24d0146104305780639bd9bbc614610460578063a457c2d71461047c576101cf565b80638da5cb5b146103ce578063959b8c3f146103ec57806395d89b4114610408576101cf565b8063395093511161017157806362ad1b831161014b57806362ad1b831461034857806370a0823114610364578063715018a6146103945780637ecebe001461039e576101cf565b806339509351146102ca5780634ee2cd7e146102fa578063556f0dc71461032a576101cf565b806318160ddd116101ad57806318160ddd1461024057806323b872dd1461025e578063313ce5671461028e5780633644e515146102ac576101cf565b806306e48538146101d457806306fdde03146101f2578063095ea7b314610210575b600080fd5b6101dc6105c8565b6040516101e991906137f7565b60405180910390f35b6101fa610656565b6040516102079190613948565b60405180910390f35b61022a60048036038101906102259190613096565b6106e8565b6040516102379190613819565b60405180910390f35b61024861070b565b6040516102559190613c6a565b60405180910390f35b61027860048036038101906102739190612f02565b610715565b6040516102859190613819565b60405180910390f35b61029661096f565b6040516102a39190613cca565b60405180910390f35b6102b4610978565b6040516102c19190613834565b60405180910390f35b6102e460048036038101906102df9190613096565b610987565b6040516102f19190613819565b60405180910390f35b610314600480360381019061030f9190613096565b610a33565b6040516103219190613c6a565b60405180910390f35b610332610aa3565b60405161033f9190613c6a565b60405180910390f35b610362600480360381019061035d9190612f51565b610aac565b005b61037e60048036038101906103799190612e74565b610b12565b60405161038b9190613c6a565b60405180910390f35b61039c610b5b565b005b6103b860048036038101906103b39190612e74565b610be3565b6040516103c59190613c6a565b60405180910390f35b6103d6610c33565b6040516103e39190613744565b60405180910390f35b61040660048036038101906104019190612e74565b610c5c565b005b610410610ebd565b60405161041d9190613948565b60405180910390f35b61042e610f4f565b005b61044a600480360381019061044591906131cc565b610fd6565b6040516104579190613c6a565b60405180910390f35b61047a600480360381019061047591906130d2565b611007565b005b61049660048036038101906104919190613096565b611031565b6040516104a39190613819565b60405180910390f35b6104c660048036038101906104c19190613096565b61111c565b6040516104d39190613819565b60405180910390f35b6104f660048036038101906104f19190612ff8565b61122a565b005b610512600480360381019061050d9190612ec6565b61136c565b60405161051f9190613819565b60405180910390f35b610542600480360381019061053d9190612ec6565b61151d565b60405161054f9190613c6a565b60405180910390f35b610572600480360381019061056d9190612e74565b6115a4565b005b61058e60048036038101906105899190612e74565b61169c565b005b6105aa60048036038101906105a59190613139565b6118fd565b005b6105c660048036038101906105c191906131f5565b61195f565b005b6060600480548060200260200160405190810160405280929190818152602001828054801561064c57602002820191906000526020600020905b8160009054906101000a900473ffffffffffffffffffffffffffffffffffffffff1673ffffffffffffffffffffffffffffffffffffffff1681526020019060010190808311610602575b5050505050905090565b60606002805461066590613f13565b80601f016020809104026020016040519081016040528092919081815260200182805461069190613f13565b80156106de5780601f106106b3576101008083540402835291602001916106de565b820191906000526020600020905b8154815290600101906020018083116106c157829003601f168201915b5050505050905090565b6000806106f36119a6565b90506107008185856119ae565b600191505092915050565b6000600154905090565b60008073ffffffffffffffffffffffffffffffffffffffff168373ffffffffffffffffffffffffffffffffffffffff161415610786576040517f08c379a000000000000000000000000000000000000000000000000000000000815260040161077d90613b4a565b60405180910390fd5b600073ffffffffffffffffffffffffffffffffffffffff168473ffffffffffffffffffffffffffffffffffffffff1614156107f6576040517f08c379a00000000000000000000000000000000000000000000000000000000081526004016107ed90613bca565b60405180910390fd5b60006108006119a6565b905061082e818686866040518060200160405280600081525060405180602001604052806000815250611b79565b61085a818686866040518060200160405280600081525060405180602001604052806000815250611cef565b6000600a60008773ffffffffffffffffffffffffffffffffffffffff1673ffffffffffffffffffffffffffffffffffffffff16815260200190815260200160002060008373ffffffffffffffffffffffffffffffffffffffff1673ffffffffffffffffffffffffffffffffffffffff1681526020019081526020016000205490508381101561091e576040517f08c379a000000000000000000000000000000000000000000000000000000000815260040161091590613baa565b60405180910390fd5b6109348683868461092f9190613e3e565b6119ae565b6109628287878760405180602001604052806000815250604051806020016040528060008152506000611f18565b6001925050509392505050565b60006012905090565b60006109826120f9565b905090565b6000610a296109946119a6565b8484600a60006109a26119a6565b73ffffffffffffffffffffffffffffffffffffffff1673ffffffffffffffffffffffffffffffffffffffff16815260200190815260200160002060008873ffffffffffffffffffffffffffffffffffffffff1673ffffffffffffffffffffffffffffffffffffffff16815260200190815260200160002054610a249190613db7565b6119ae565b6001905092915050565b6000806000610a8084600b60008873ffffffffffffffffffffffffffffffffffffffff1673ffffffffffffffffffffffffffffffffffffffff1681526020019081526020016000206121bc565b9150915081610a9757610a9285610b12565b610a99565b805b9250505092915050565b60006001905090565b610abd610ab76119a6565b8661136c565b610afc576040517f08c379a0000000000000000000000000000000000000000000000000000000008152600401610af390613b6a565b60405180910390fd5b610b0b858585858560016122d8565b5050505050565b6000600860008373ffffffffffffffffffffffffffffffffffffffff1673ffffffffffffffffffffffffffffffffffffffff168152602001908152602001600020549050919050565b610b636119a6565b73ffffffffffffffffffffffffffffffffffffffff16610b81610c33565b73ffffffffffffffffffffffffffffffffffffffff1614610bd7576040517f08c379a0000000000000000000000000000000000000000000000000000000008152600401610bce90613b0a565b60405180910390fd5b610be160006123f8565b565b6000610c2c600960008473ffffffffffffffffffffffffffffffffffffffff1673ffffffffffffffffffffffffffffffffffffffff168152602001908152602001600020611998565b9050919050565b60008060009054906101000a900473ffffffffffffffffffffffffffffffffffffffff16905090565b8073ffffffffffffffffffffffffffffffffffffffff16610c7b6119a6565b73ffffffffffffffffffffffffffffffffffffffff161415610cd2576040517f08c379a0000000000000000000000000000000000000000000000000000000008152600401610cc990613a6a565b60405180910390fd5b600560008273ffffffffffffffffffffffffffffffffffffffff1673ffffffffffffffffffffffffffffffffffffffff16815260200190815260200160002060009054906101000a900460ff1615610dbc5760076000610d306119a6565b73ffffffffffffffffffffffffffffffffffffffff1673ffffffffffffffffffffffffffffffffffffffff16815260200190815260200160002060008273ffffffffffffffffffffffffffffffffffffffff1673ffffffffffffffffffffffffffffffffffffffff16815260200190815260200160002060006101000a81549060ff0219169055610e59565b600160066000610dca6119a6565b73ffffffffffffffffffffffffffffffffffffffff1673ffffffffffffffffffffffffffffffffffffffff16815260200190815260200160002060008373ffffffffffffffffffffffffffffffffffffffff1673ffffffffffffffffffffffffffffffffffffffff16815260200190815260200160002060006101000a81548160ff0219169083151502179055505b610e616119a6565b73ffffffffffffffffffffffffffffffffffffffff168173ffffffffffffffffffffffffffffffffffffffff167ff4caeb2d6ca8932a215a353d0703c326ec2d81fc68170f320eb2ab49e9df61f960405160405180910390a350565b606060038054610ecc90613f13565b80601f0160208091040260200160405190810160405280929190818152602001828054610ef890613f13565b8015610f455780601f10610f1a57610100808354040283529160200191610f45565b820191906000526020600020905b815481529060010190602001808311610f2857829003601f168201915b5050505050905090565b610f576119a6565b73ffffffffffffffffffffffffffffffffffffffff16610f75610c33565b73ffffffffffffffffffffffffffffffffffffffff1614610fcb576040517f08c379a0000000000000000000000000000000000000000000000000000000008152600401610fc290613b0a565b60405180910390fd5b610fd36124bc565b50565b6000806000610fe684600c6121bc565b9150915081610ffc57610ff761070b565b610ffe565b805b92505050919050565b61102c6110126119a6565b8484846040518060200160405280600081525060016122d8565b505050565b600080600a60006110406119a6565b73ffffffffffffffffffffffffffffffffffffffff1673ffffffffffffffffffffffffffffffffffffffff16815260200190815260200160002060008573ffffffffffffffffffffffffffffffffffffffff1673ffffffffffffffffffffffffffffffffffffffff168152602001908152602001600020549050828110156110fd576040517f08c379a00000000000000000000000000000000000000000000000000000000081526004016110f490613c2a565b60405180910390fd5b6111116111086119a6565b858584036119ae565b600191505092915050565b60008073ffffffffffffffffffffffffffffffffffffffff168373ffffffffffffffffffffffffffffffffffffffff16141561118d576040517f08c379a000000000000000000000000000000000000000000000000000000000815260040161118490613b4a565b60405180910390fd5b60006111976119a6565b90506111c5818286866040518060200160405280600081525060405180602001604052806000815250611b79565b6111f1818286866040518060200160405280600081525060405180602001604052806000815250611cef565b61121f8182868660405180602001604052806000815250604051806020016040528060008152506000611f18565b600191505092915050565b8342111561126d576040517f08c379a000000000000000000000000000000000000000000000000000000000815260040161126490613a4a565b60405180910390fd5b60007f000000000000000000000000000000000000000000000000000000000000000088888861129c8c612512565b896040516020016112b29695949392919061384f565b60405160208183030381529060405280519060200120905060006112d582612570565b905060006112e58287878761258a565b90508973ffffffffffffffffffffffffffffffffffffffff168173ffffffffffffffffffffffffffffffffffffffff1614611355576040517f08c379a000000000000000000000000000000000000000000000000000000000815260040161134c90613aea565b60405180910390fd5b6113608a8a8a6119ae565b50505050505050505050565b60008173ffffffffffffffffffffffffffffffffffffffff168373ffffffffffffffffffffffffffffffffffffffff1614806114845750600560008473ffffffffffffffffffffffffffffffffffffffff1673ffffffffffffffffffffffffffffffffffffffff16815260200190815260200160002060009054906101000a900460ff1680156114835750600760008373ffffffffffffffffffffffffffffffffffffffff1673ffffffffffffffffffffffffffffffffffffffff16815260200190815260200160002060008473ffffffffffffffffffffffffffffffffffffffff1673ffffffffffffffffffffffffffffffffffffffff16815260200190815260200160002060009054906101000a900460ff16155b5b806115155750600660008373ffffffffffffffffffffffffffffffffffffffff1673ffffffffffffffffffffffffffffffffffffffff16815260200190815260200160002060008473ffffffffffffffffffffffffffffffffffffffff1673ffffffffffffffffffffffffffffffffffffffff16815260200190815260200160002060009054906101000a900460ff165b905092915050565b6000600a60008473ffffffffffffffffffffffffffffffffffffffff1673ffffffffffffffffffffffffffffffffffffffff16815260200190815260200160002060008373ffffffffffffffffffffffffffffffffffffffff1673ffffffffffffffffffffffffffffffffffffffff16815260200190815260200160002054905092915050565b6115ac6119a6565b73ffffffffffffffffffffffffffffffffffffffff166115ca610c33565b73ffffffffffffffffffffffffffffffffffffffff1614611620576040517f08c379a000000000000000000000000000000000000000000000000000000000815260040161161790613b0a565b60405180910390fd5b600073ffffffffffffffffffffffffffffffffffffffff168173ffffffffffffffffffffffffffffffffffffffff161415611690576040517f08c379a000000000000000000000000000000000000000000000000000000000815260040161168790613a0a565b60405180910390fd5b611699816123f8565b50565b6116a46119a6565b73ffffffffffffffffffffffffffffffffffffffff168173ffffffffffffffffffffffffffffffffffffffff161415611712576040517f08c379a000000000000000000000000000000000000000000000000000000000815260040161170990613aaa565b60405180910390fd5b600560008273ffffffffffffffffffffffffffffffffffffffff1673ffffffffffffffffffffffffffffffffffffffff16815260200190815260200160002060009054906101000a900460ff1615611805576001600760006117726119a6565b73ffffffffffffffffffffffffffffffffffffffff1673ffffffffffffffffffffffffffffffffffffffff16815260200190815260200160002060008373ffffffffffffffffffffffffffffffffffffffff1673ffffffffffffffffffffffffffffffffffffffff16815260200190815260200160002060006101000a81548160ff021916908315150217905550611899565b600660006118116119a6565b73ffffffffffffffffffffffffffffffffffffffff1673ffffffffffffffffffffffffffffffffffffffff16815260200190815260200160002060008273ffffffffffffffffffffffffffffffffffffffff1673ffffffffffffffffffffffffffffffffffffffff16815260200190815260200160002060006101000a81549060ff02191690555b6118a16119a6565b73ffffffffffffffffffffffffffffffffffffffff168173ffffffffffffffffffffffffffffffffffffffff167f50546e66e5f44d728365dc3908c63bc5cfeeab470722c1677e3073a6ac294aa160405160405180910390a350565b61190e6119086119a6565b8561136c565b61194d576040517f08c379a000000000000000000000000000000000000000000000000000000000815260040161194490613b6a565b60405180910390fd5b61195984848484612715565b50505050565b61198161196a6119a6565b838360405180602001604052806000815250612715565b5050565b600080823b905060008111915050919050565b600081600001549050919050565b600033905090565b600073ffffffffffffffffffffffffffffffffffffffff168373ffffffffffffffffffffffffffffffffffffffff161415611a1e576040517f08c379a0000000000000000000000000000000000000000000000000000000008152600401611a15906139aa565b60405180910390fd5b600073ffffffffffffffffffffffffffffffffffffffff168273ffffffffffffffffffffffffffffffffffffffff161415611a8e576040517f08c379a0000000000000000000000000000000000000000000000000000000008152600401611a8590613c4a565b60405180910390fd5b80600a60008573ffffffffffffffffffffffffffffffffffffffff1673ffffffffffffffffffffffffffffffffffffffff16815260200190815260200160002060008473ffffffffffffffffffffffffffffffffffffffff1673ffffffffffffffffffffffffffffffffffffffff168152602001908152602001600020819055508173ffffffffffffffffffffffffffffffffffffffff168373ffffffffffffffffffffffffffffffffffffffff167f8c5be1e5ebec7d5bd14f71427d1e84f3dd0314c0f7b2291e5b200ac8c7c3b92583604051611b6c9190613c6a565b60405180910390a3505050565b6000731820a4b7618bde71dce8cdc73aab6c95905fad2473ffffffffffffffffffffffffffffffffffffffff1663aabbb8ca877f29ddb589b1fb5fc7cf394961c1adf5f8c6454761adf795e67fe149f658abe8956040518363ffffffff1660e01b8152600401611bea9291906137ce565b60206040518083038186803b158015611c0257600080fd5b505afa158015611c16573d6000803e3d6000fd5b505050506040513d601f19601f82011682018060405250810190611c3a9190612e9d565b9050600073ffffffffffffffffffffffffffffffffffffffff168173ffffffffffffffffffffffffffffffffffffffff1614611ce6578073ffffffffffffffffffffffffffffffffffffffff166375ab97828888888888886040518763ffffffff1660e01b8152600401611cb39695949392919061375f565b600060405180830381600087803b158015611ccd57600080fd5b505af1158015611ce1573d6000803e3d6000fd5b505050505b50505050505050565b611cfb86868686612977565b6000600860008773ffffffffffffffffffffffffffffffffffffffff1673ffffffffffffffffffffffffffffffffffffffff16815260200190815260200160002054905083811015611d82576040517f08c379a0000000000000000000000000000000000000000000000000000000008152600401611d79906139ea565b60405180910390fd5b838103600860008873ffffffffffffffffffffffffffffffffffffffff1673ffffffffffffffffffffffffffffffffffffffff1681526020019081526020016000208190555083600860008773ffffffffffffffffffffffffffffffffffffffff1673ffffffffffffffffffffffffffffffffffffffff1681526020019081526020016000206000828254611e179190613db7565b925050819055508473ffffffffffffffffffffffffffffffffffffffff168673ffffffffffffffffffffffffffffffffffffffff168873ffffffffffffffffffffffffffffffffffffffff167f06b541ddaa720db2b10a4d0cdac39b8d360425fc073085fac19bc82614677987878787604051611e9693929190613c85565b60405180910390a48473ffffffffffffffffffffffffffffffffffffffff168673ffffffffffffffffffffffffffffffffffffffff167fddf252ad1be2c89b69c2b068fc378daa952ba7f163c4a11628f55a4df523b3ef86604051611efb9190613c6a565b60405180910390a3611f0f87878787612a27565b50505050505050565b6000731820a4b7618bde71dce8cdc73aab6c95905fad2473ffffffffffffffffffffffffffffffffffffffff1663aabbb8ca877fb281fc8c12954d22544db45de3159a39272895b169a852b314f9cc762e44c53b6040518363ffffffff1660e01b8152600401611f899291906137ce565b60206040518083038186803b158015611fa157600080fd5b505afa158015611fb5573d6000803e3d6000fd5b505050506040513d601f19601f82011682018060405250810190611fd99190612e9d565b9050600073ffffffffffffffffffffffffffffffffffffffff168173ffffffffffffffffffffffffffffffffffffffff1614612088578073ffffffffffffffffffffffffffffffffffffffff166223de298989898989896040518763ffffffff1660e01b81526004016120519695949392919061375f565b600060405180830381600087803b15801561206b57600080fd5b505af115801561207f573d6000803e3d6000fd5b505050506120ef565b81156120ee576120ad8673ffffffffffffffffffffffffffffffffffffffff16611985565b156120ed576040517f08c379a00000000000000000000000000000000000000000000000000000000081526004016120e490613b2a565b60405180910390fd5b5b5b5050505050505050565b60007f000000000000000000000000000000000000000000000000000000000000000046141561214b577f000000000000000000000000000000000000000000000000000000000000000090506121b9565b6121b67f00000000000000000000000000000000000000000000000000000000000000007f00000000000000000000000000000000000000000000000000000000000000007f0000000000000000000000000000000000000000000000000000000000000000612a2d565b90505b90565b60008060008411612202576040517f08c379a00000000000000000000000000000000000000000000000000000000081526004016121f990613b8a565b60405180910390fd5b61220a612a67565b84111561224c576040517f08c379a00000000000000000000000000000000000000000000000000000000081526004016122439061398a565b60405180910390fd5b60006122648585600001612a7890919063ffffffff16565b905083600001805490508114156122825760008092509250506122d1565b60018460010182815481106122c0577f4e487b7100000000000000000000000000000000000000000000000000000000600052603260045260246000fd5b906000526020600020015492509250505b9250929050565b600073ffffffffffffffffffffffffffffffffffffffff168673ffffffffffffffffffffffffffffffffffffffff161415612348576040517f08c379a000000000000000000000000000000000000000000000000000000000815260040161233f906139ca565b60405180910390fd5b600073ffffffffffffffffffffffffffffffffffffffff168573ffffffffffffffffffffffffffffffffffffffff1614156123b8576040517f08c379a00000000000000000000000000000000000000000000000000000000081526004016123af90613c0a565b60405180910390fd5b60006123c26119a6565b90506123d2818888888888611b79565b6123e0818888888888611cef565b6123ef81888888888888611f18565b50505050505050565b60008060009054906101000a900473ffffffffffffffffffffffffffffffffffffffff169050816000806101000a81548173ffffffffffffffffffffffffffffffffffffffff021916908373ffffffffffffffffffffffffffffffffffffffff1602179055508173ffffffffffffffffffffffffffffffffffffffff168173ffffffffffffffffffffffffffffffffffffffff167f8be0079c531659141344cd1fd0a4f28419497f9722a3daafe3b4186f6b6457e060405160405180910390a35050565b60006124c8600e612b9e565b60006124d2612a67565b90507f8030e83b04d87bef53480e26263266d6ca66863aa8506aca6f2559d18aa1cb67816040516125039190613c6a565b60405180910390a18091505090565b600080600960008473ffffffffffffffffffffffffffffffffffffffff1673ffffffffffffffffffffffffffffffffffffffff168152602001908152602001600020905061255f81611998565b915061256a81612b9e565b50919050565b600061258361257d6120f9565b83612bb4565b9050919050565b60007f7fffffffffffffffffffffffffffffff5d576e7357a4501ddfe92f46681b20a08260001c11156125f2576040517f08c379a00000000000000000000000000000000000000000000000000000000081526004016125e990613a8a565b60405180910390fd5b601b8460ff1614806126075750601c8460ff16145b612646576040517f08c379a000000000000000000000000000000000000000000000000000000000815260040161263d90613aca565b60405180910390fd5b60006001868686866040516000815260200160405260405161266b9493929190613903565b6020604051602081039080840390855afa15801561268d573d6000803e3d6000fd5b505050602060405103519050600073ffffffffffffffffffffffffffffffffffffffff168173ffffffffffffffffffffffffffffffffffffffff161415612709576040517f08c379a00000000000000000000000000000000000000000000000000000000081526004016127009061396a565b60405180910390fd5b80915050949350505050565b600073ffffffffffffffffffffffffffffffffffffffff168473ffffffffffffffffffffffffffffffffffffffff161415612785576040517f08c379a000000000000000000000000000000000000000000000000000000000815260040161277c90613a2a565b60405180910390fd5b600061278f6119a6565b90506127a081866000878787611b79565b6127ad8186600087612977565b6000600860008773ffffffffffffffffffffffffffffffffffffffff1673ffffffffffffffffffffffffffffffffffffffff16815260200190815260200160002054905084811015612834576040517f08c379a000000000000000000000000000000000000000000000000000000000815260040161282b90613bea565b60405180910390fd5b848103600860008873ffffffffffffffffffffffffffffffffffffffff1673ffffffffffffffffffffffffffffffffffffffff16815260200190815260200160002081905550846001600082825461288c9190613e3e565b925050819055508573ffffffffffffffffffffffffffffffffffffffff168273ffffffffffffffffffffffffffffffffffffffff167fa78a9be3a7b862d26933ad85fb11d80ef66b8f972d7cbba06621d583943a40988787876040516128f493929190613c85565b60405180910390a3600073ffffffffffffffffffffffffffffffffffffffff168673ffffffffffffffffffffffffffffffffffffffff167fddf252ad1be2c89b69c2b068fc378daa952ba7f163c4a11628f55a4df523b3ef8760405161295a9190613c6a565b60405180910390a361296f8287600088612a27565b505050505050565b600073ffffffffffffffffffffffffffffffffffffffff168373ffffffffffffffffffffffffffffffffffffffff1614156129c2576129b582612be7565b6129bd612c3a565b612a21565b600073ffffffffffffffffffffffffffffffffffffffff168273ffffffffffffffffffffffffffffffffffffffff161415612a0d57612a0083612be7565b612a08612c3a565b612a20565b612a1683612be7565b612a1f82612be7565b5b5b50505050565b50505050565b60008383834630604051602001612a489594939291906138b0565b6040516020818303038152906040528051906020012090509392505050565b6000612a73600e611998565b905090565b60008083805490501415612a8f5760009050612b98565b600080848054905090505b80821015612b19576000612aae8383612c4e565b905084868281548110612aea577f4e487b7100000000000000000000000000000000000000000000000000000000600052603260045260246000fd5b90600052602060002001541115612b0357809150612b13565b600181612b109190613db7565b92505b50612a9a565b600082118015612b7757508385600184612b339190613e3e565b81548110612b6a577f4e487b7100000000000000000000000000000000000000000000000000000000600052603260045260246000fd5b9060005260206000200154145b15612b9257600182612b899190613e3e565b92505050612b98565b81925050505b92915050565b6001816000016000828254019250508190555050565b60008282604051602001612bc992919061370d565b60405160208183030381529060405280519060200120905092915050565b612c37600b60008373ffffffffffffffffffffffffffffffffffffffff1673ffffffffffffffffffffffffffffffffffffffff168152602001908152602001600020612c3283610b12565b612cb5565b50565b612c4c600c612c4761070b565b612cb5565b565b600060028083612c5e9190613f80565b600285612c6b9190613f80565b612c759190613db7565b612c7f9190613e0d565b600283612c8c9190613e0d565b600285612c999190613e0d565b612ca39190613db7565b612cad9190613db7565b905092915050565b6000612cbf612a67565b905080612cce84600001612d30565b1015612d2b5782600001819080600181540180825580915050600190039060005260206000200160009091909190915055826001018290806001815401808255809150506001900390600052602060002001600090919091909150555b505050565b60008082805490501415612d475760009050612d9e565b8160018380549050612d599190613e3e565b81548110612d90577f4e487b7100000000000000000000000000000000000000000000000000000000600052603260045260246000fd5b906000526020600020015490505b919050565b6000612db6612db184613d0a565b613ce5565b905082815260208101848484011115612dce57600080fd5b612dd9848285613ed1565b509392505050565b600081359050612df08161472b565b92915050565b600081519050612e058161472b565b92915050565b600081359050612e1a81614742565b92915050565b600082601f830112612e3157600080fd5b8135612e41848260208601612da3565b91505092915050565b600081359050612e5981614759565b92915050565b600081359050612e6e81614770565b92915050565b600060208284031215612e8657600080fd5b6000612e9484828501612de1565b91505092915050565b600060208284031215612eaf57600080fd5b6000612ebd84828501612df6565b91505092915050565b60008060408385031215612ed957600080fd5b6000612ee785828601612de1565b9250506020612ef885828601612de1565b9150509250929050565b600080600060608486031215612f1757600080fd5b6000612f2586828701612de1565b9350506020612f3686828701612de1565b9250506040612f4786828701612e4a565b9150509250925092565b600080600080600060a08688031215612f6957600080fd5b6000612f7788828901612de1565b9550506020612f8888828901612de1565b9450506040612f9988828901612e4a565b935050606086013567ffffffffffffffff811115612fb657600080fd5b612fc288828901612e20565b925050608086013567ffffffffffffffff811115612fdf57600080fd5b612feb88828901612e20565b9150509295509295909350565b600080600080600080600060e0888a03121561301357600080fd5b60006130218a828b01612de1565b97505060206130328a828b01612de1565b96505060406130438a828b01612e4a565b95505060606130548a828b01612e4a565b94505060806130658a828b01612e5f565b93505060a06130768a828b01612e0b565b92505060c06130878a828b01612e0b565b91505092959891949750929550565b600080604083850312156130a957600080fd5b60006130b785828601612de1565b92505060206130c885828601612e4a565b9150509250929050565b6000806000606084860312156130e757600080fd5b60006130f586828701612de1565b935050602061310686828701612e4a565b925050604084013567ffffffffffffffff81111561312357600080fd5b61312f86828701612e20565b9150509250925092565b6000806000806080858703121561314f57600080fd5b600061315d87828801612de1565b945050602061316e87828801612e4a565b935050604085013567ffffffffffffffff81111561318b57600080fd5b61319787828801612e20565b925050606085013567ffffffffffffffff8111156131b457600080fd5b6131c087828801612e20565b91505092959194509250565b6000602082840312156131de57600080fd5b60006131ec84828501612e4a565b91505092915050565b6000806040838503121561320857600080fd5b600061321685828601612e4a565b925050602083013567ffffffffffffffff81111561323357600080fd5b61323f85828601612e20565b9150509250929050565b60006132558383613261565b60208301905092915050565b61326a81613e72565b82525050565b61327981613e72565b82525050565b600061328a82613d4b565b6132948185613d79565b935061329f83613d3b565b8060005b838110156132d05781516132b78882613249565b97506132c283613d6c565b9250506001810190506132a3565b5085935050505092915050565b6132e681613e84565b82525050565b6132f581613e90565b82525050565b61330c61330782613e90565b613f76565b82525050565b600061331d82613d56565b6133278185613d8a565b9350613337818560208601613ee0565b6133408161406d565b840191505092915050565b600061335682613d61565b6133608185613d9b565b9350613370818560208601613ee0565b6133798161406d565b840191505092915050565b6000613391601883613d9b565b915061339c8261407e565b602082019050919050565b60006133b4601d83613d9b565b91506133bf826140a7565b602082019050919050565b60006133d7602583613d9b565b91506133e2826140d0565b604082019050919050565b60006133fa602283613d9b565b91506134058261411f565b604082019050919050565b600061341d602783613d9b565b91506134288261416e565b604082019050919050565b6000613440602683613d9b565b915061344b826141bd565b604082019050919050565b6000613463600283613dac565b915061346e8261420c565b600282019050919050565b6000613486602283613d9b565b915061349182614235565b604082019050919050565b60006134a9601d83613d9b565b91506134b482614284565b602082019050919050565b60006134cc602483613d9b565b91506134d7826142ad565b604082019050919050565b60006134ef602283613d9b565b91506134fa826142fc565b604082019050919050565b6000613512602183613d9b565b915061351d8261434b565b604082019050919050565b6000613535602283613d9b565b91506135408261439a565b604082019050919050565b6000613558601e83613d9b565b9150613563826143e9565b602082019050919050565b600061357b602083613d9b565b915061358682614412565b602082019050919050565b600061359e604d83613d9b565b91506135a98261443b565b606082019050919050565b60006135c1602483613d9b565b91506135cc826144b0565b604082019050919050565b60006135e4602c83613d9b565b91506135ef826144ff565b604082019050919050565b6000613607601683613d9b565b91506136128261454e565b602082019050919050565b600061362a602983613d9b565b915061363582614577565b604082019050919050565b600061364d602683613d9b565b9150613658826145c6565b604082019050919050565b6000613670602383613d9b565b915061367b82614615565b604082019050919050565b6000613693602083613d9b565b915061369e82614664565b602082019050919050565b60006136b6602583613d9b565b91506136c18261468d565b604082019050919050565b60006136d9602383613d9b565b91506136e4826146dc565b604082019050919050565b6136f881613eba565b82525050565b61370781613ec4565b82525050565b600061371882613456565b915061372482856132fb565b60208201915061373482846132fb565b6020820191508190509392505050565b60006020820190506137596000830184613270565b92915050565b600060c0820190506137746000830189613270565b6137816020830188613270565b61378e6040830187613270565b61379b60608301866136ef565b81810360808301526137ad8185613312565b905081810360a08301526137c18184613312565b9050979650505050505050565b60006040820190506137e36000830185613270565b6137f060208301846132ec565b9392505050565b60006020820190508181036000830152613811818461327f565b905092915050565b600060208201905061382e60008301846132dd565b92915050565b600060208201905061384960008301846132ec565b92915050565b600060c08201905061386460008301896132ec565b6138716020830188613270565b61387e6040830187613270565b61388b60608301866136ef565b61389860808301856136ef565b6138a560a08301846136ef565b979650505050505050565b600060a0820190506138c560008301886132ec565b6138d260208301876132ec565b6138df60408301866132ec565b6138ec60608301856136ef565b6138f96080830184613270565b9695505050505050565b600060808201905061391860008301876132ec565b61392560208301866136fe565b61393260408301856132ec565b61393f60608301846132ec565b95945050505050565b60006020820190508181036000830152613962818461334b565b905092915050565b6000602082019050818103600083015261398381613384565b9050919050565b600060208201905081810360008301526139a3816133a7565b9050919050565b600060208201905081810360008301526139c3816133ca565b9050919050565b600060208201905081810360008301526139e3816133ed565b9050919050565b60006020820190508181036000830152613a0381613410565b9050919050565b60006020820190508181036000830152613a2381613433565b9050919050565b60006020820190508181036000830152613a4381613479565b9050919050565b60006020820190508181036000830152613a638161349c565b9050919050565b60006020820190508181036000830152613a83816134bf565b9050919050565b60006020820190508181036000830152613aa3816134e2565b9050919050565b60006020820190508181036000830152613ac381613505565b9050919050565b60006020820190508181036000830152613ae381613528565b9050919050565b60006020820190508181036000830152613b038161354b565b9050919050565b60006020820190508181036000830152613b238161356e565b9050919050565b60006020820190508181036000830152613b4381613591565b9050919050565b60006020820190508181036000830152613b63816135b4565b9050919050565b60006020820190508181036000830152613b83816135d7565b9050919050565b60006020820190508181036000830152613ba3816135fa565b9050919050565b60006020820190508181036000830152613bc38161361d565b9050919050565b60006020820190508181036000830152613be381613640565b9050919050565b60006020820190508181036000830152613c0381613663565b9050919050565b60006020820190508181036000830152613c2381613686565b9050919050565b60006020820190508181036000830152613c43816136a9565b9050919050565b60006020820190508181036000830152613c63816136cc565b9050919050565b6000602082019050613c7f60008301846136ef565b92915050565b6000606082019050613c9a60008301866136ef565b8181036020830152613cac8185613312565b90508181036040830152613cc08184613312565b9050949350505050565b6000602082019050613cdf60008301846136fe565b92915050565b6000613cef613d00565b9050613cfb8282613f45565b919050565b6000604051905090565b600067ffffffffffffffff821115613d2557613d2461403e565b5b613d2e8261406d565b9050602081019050919050565b6000819050602082019050919050565b600081519050919050565b600081519050919050565b600081519050919050565b6000602082019050919050565b600082825260208201905092915050565b600082825260208201905092915050565b600082825260208201905092915050565b600081905092915050565b6000613dc282613eba565b9150613dcd83613eba565b9250827fffffffffffffffffffffffffffffffffffffffffffffffffffffffffffffffff03821115613e0257613e01613fb1565b5b828201905092915050565b6000613e1882613eba565b9150613e2383613eba565b925082613e3357613e32613fe0565b5b828204905092915050565b6000613e4982613eba565b9150613e5483613eba565b925082821015613e6757613e66613fb1565b5b828203905092915050565b6000613e7d82613e9a565b9050919050565b60008115159050919050565b6000819050919050565b600073ffffffffffffffffffffffffffffffffffffffff82169050919050565b6000819050919050565b600060ff82169050919050565b82818337600083830152505050565b60005b83811015613efe578082015181840152602081019050613ee3565b83811115613f0d576000848401525b50505050565b60006002820490506001821680613f2b57607f821691505b60208210811415613f3f57613f3e61400f565b5b50919050565b613f4e8261406d565b810181811067ffffffffffffffff82111715613f6d57613f6c61403e565b5b80604052505050565b6000819050919050565b6000613f8b82613eba565b9150613f9683613eba565b925082613fa657613fa5613fe0565b5b828206905092915050565b7f4e487b7100000000000000000000000000000000000000000000000000000000600052601160045260246000fd5b7f4e487b7100000000000000000000000000000000000000000000000000000000600052601260045260246000fd5b7f4e487b7100000000000000000000000000000000000000000000000000000000600052602260045260246000fd5b7f4e487b7100000000000000000000000000000000000000000000000000000000600052604160045260246000fd5b6000601f19601f8301169050919050565b7f45434453413a20696e76616c6964207369676e61747572650000000000000000600082015250565b7f4552433230536e617073686f743a206e6f6e6578697374656e74206964000000600082015250565b7f4552433737373a20617070726f76652066726f6d20746865207a65726f20616460008201527f6472657373000000000000000000000000000000000000000000000000000000602082015250565b7f4552433737373a2073656e642066726f6d20746865207a65726f20616464726560008201527f7373000000000000000000000000000000000000000000000000000000000000602082015250565b7f4552433737373a207472616e7366657220616d6f756e7420657863656564732060008201527f62616c616e636500000000000000000000000000000000000000000000000000602082015250565b7f4f776e61626c653a206e6577206f776e657220697320746865207a65726f206160008201527f6464726573730000000000000000000000000000000000000000000000000000602082015250565b7f1901000000000000000000000000000000000000000000000000000000000000600082015250565b7f4552433737373a206275726e2066726f6d20746865207a65726f20616464726560008201527f7373000000000000000000000000000000000000000000000000000000000000602082015250565b7f45524332305065726d69743a206578706972656420646561646c696e65000000600082015250565b7f4552433737373a20617574686f72697a696e672073656c66206173206f70657260008201527f61746f7200000000000000000000000000000000000000000000000000000000602082015250565b7f45434453413a20696e76616c6964207369676e6174757265202773272076616c60008201527f7565000000000000000000000000000000000000000000000000000000000000602082015250565b7f4552433737373a207265766f6b696e672073656c66206173206f70657261746f60008201527f7200000000000000000000000000000000000000000000000000000000000000602082015250565b7f45434453413a20696e76616c6964207369676e6174757265202776272076616c60008201527f7565000000000000000000000000000000000000000000000000000000000000602082015250565b7f45524332305065726d69743a20696e76616c6964207369676e61747572650000600082015250565b7f4f776e61626c653a2063616c6c6572206973206e6f7420746865206f776e6572600082015250565b7f4552433737373a20746f6b656e20726563697069656e7420636f6e747261637460008201527f20686173206e6f20696d706c656d656e74657220666f7220455243373737546f60208201527f6b656e73526563697069656e7400000000000000000000000000000000000000604082015250565b7f4552433737373a207472616e7366657220746f20746865207a65726f2061646460008201527f7265737300000000000000000000000000000000000000000000000000000000602082015250565b7f4552433737373a2063616c6c6572206973206e6f7420616e206f70657261746f60008201527f7220666f7220686f6c6465720000000000000000000000000000000000000000602082015250565b7f4552433230536e617073686f743a206964206973203000000000000000000000600082015250565b7f4552433737373a207472616e7366657220616d6f756e7420657863656564732060008201527f616c6c6f77616e63650000000000000000000000000000000000000000000000602082015250565b7f4552433737373a207472616e736665722066726f6d20746865207a65726f206160008201527f6464726573730000000000000000000000000000000000000000000000000000602082015250565b7f4552433737373a206275726e20616d6f756e7420657863656564732062616c6160008201527f6e63650000000000000000000000000000000000000000000000000000000000602082015250565b7f4552433737373a2073656e6420746f20746865207a65726f2061646472657373600082015250565b7f45524332303a2064656372656173656420616c6c6f77616e63652062656c6f7760008201527f207a65726f000000000000000000000000000000000000000000000000000000602082015250565b7f4552433737373a20617070726f766520746f20746865207a65726f206164647260008201527f6573730000000000000000000000000000000000000000000000000000000000602082015250565b61473481613e72565b811461473f57600080fd5b50565b61474b81613e90565b811461475657600080fd5b50565b61476281613eba565b811461476d57600080fd5b50565b61477981613ec4565b811461478457600080fd5b5056fea2646970667358221220af19ec17edf01e89157514a3b3dc76d5152a63c0eaf8df4852106989110d950764736f6c63430008040033",
  "immutableReferences": {
    "194": [
      {
        "length": 32,
        "start": 4721
      }
    ],
    "2848": [
      {
        "length": 32,
        "start": 8485
      }
    ],
    "2850": [
      {
        "length": 32,
        "start": 8445
      }
    ],
    "2852": [
      {
        "length": 32,
        "start": 8561
      }
    ],
    "2854": [
      {
        "length": 32,
        "start": 8594
      }
    ],
    "2856": [
      {
        "length": 32,
        "start": 8528
      }
    ]
  },
  "source": "// SPDX-License-Identifier: MIT\r\npragma solidity ^0.8.0;\r\n\r\nimport \"./token/ERC777/ERC777.sol\";\r\n\r\n\r\ncontract MedShareToken is ERC777 {\r\n    \r\n    constructor(uint256 initialSupply, address[] memory defaultOperators)\r\n        ERC777(\"MedShare Token\", \"MDST\", defaultOperators)\r\n    {\r\n        _mint(msg.sender, initialSupply, \"\", \"\");\r\n    }\r\n}\r\n",
  "sourcePath": "C:/Users/dimit/OneDrive/Documentos/GitHub/medshare/projects/solidity/contracts/MedShareToken.sol",
  "compiler": {
    "name": "solc",
    "version": "0.8.4+commit.c7e474f2.Emscripten.clang"
  },
  "schemaVersion": "3.4.1",
  "updatedAt": "2021-07-12T17:52:55.577Z",
  "devdoc": {
    "kind": "dev",
    "methods": {
      "DOMAIN_SEPARATOR()": {
        "details": "See {IERC777Permit-DOMAIN_SEPARATOR}."
      },
      "allowance(address,address)": {
        "details": "See {IERC20-allowance}. Note that operator and allowance concepts are orthogonal: operators may not have allowance, and accounts with allowance may not be operators themselves."
      },
      "approve(address,uint256)": {
        "details": "See {IERC20-approve}. Note that accounts cannot have allowance issued by their operators."
      },
      "authorizeOperator(address)": {
        "details": "See {IERC777-authorizeOperator}."
      },
      "balanceOf(address)": {
        "details": "Returns the amount of tokens owned by an account (`tokenHolder`)."
      },
      "balanceOfAt(address,uint256)": {
        "details": "Retrieves the balance of `account` at the time `snapshotId` was created."
      },
      "burn(uint256,bytes)": {
        "details": "See {IERC777-burn}. Also emits a {IERC20-Transfer} event for ERC20 compatibility."
      },
      "decimals()": {
        "details": "See {ERC20-decimals}. Always returns 18, as per the [ERC777 EIP](https://eips.ethereum.org/EIPS/eip-777#backward-compatibility)."
      },
      "decreaseAllowance(address,uint256)": {
        "details": "Atomically decreases the allowance granted to `spender` by the caller. This is an alternative to {approve} that can be used as a mitigation for problems described in {IERC20-approve}. Emits an {Approval} event indicating the updated allowance. Requirements: - `spender` cannot be the zero address. - `spender` must have allowance for the caller of at least `subtractedValue`."
      },
      "defaultOperators()": {
        "details": "See {IERC777-defaultOperators}."
      },
      "granularity()": {
        "details": "See {IERC777-granularity}. This implementation always returns `1`."
      },
      "increaseAllowance(address,uint256)": {
        "details": "Atomically increases the allowance granted to `spender` by the caller. This is an alternative to {approve} that can be used as a mitigation for problems described in {IERC20-approve}. Emits an {Approval} event indicating the updated allowance. Requirements: - `spender` cannot be the zero address."
      },
      "isOperatorFor(address,address)": {
        "details": "See {IERC777-isOperatorFor}."
      },
      "name()": {
        "details": "See {IERC777-name}."
      },
      "nonces(address)": {
        "details": "See {IERC777Permit-nonces}."
      },
      "operatorBurn(address,uint256,bytes,bytes)": {
        "details": "See {IERC777-operatorBurn}. Emits {Burned} and {IERC20-Transfer} events."
      },
      "operatorSend(address,address,uint256,bytes,bytes)": {
        "details": "See {IERC777-operatorSend}. Emits {Sent} and {IERC20-Transfer} events."
      },
      "owner()": {
        "details": "Returns the address of the current owner."
      },
      "permit(address,address,uint256,uint256,uint8,bytes32,bytes32)": {
        "details": "See {IERC777Permit-permit}."
      },
      "renounceOwnership()": {
        "details": "Leaves the contract without owner. It will not be possible to call `onlyOwner` functions anymore. Can only be called by the current owner. NOTE: Renouncing ownership will leave the contract without an owner, thereby removing any functionality that is only available to the owner."
      },
      "revokeOperator(address)": {
        "details": "See {IERC777-revokeOperator}."
      },
      "send(address,uint256,bytes)": {
        "details": "See {IERC777-send}. Also emits a {IERC20-Transfer} event for ERC20 compatibility."
      },
      "symbol()": {
        "details": "See {IERC777-symbol}."
      },
      "totalSupply()": {
        "details": "See {IERC777-totalSupply}."
      },
      "totalSupplyAt(uint256)": {
        "details": "Retrieves the total supply at the time `snapshotId` was created."
      },
      "transfer(address,uint256)": {
        "details": "See {IERC20-transfer}. Unlike `send`, `recipient` is _not_ required to implement the {IERC777Recipient} interface if it is a contract. Also emits a {Sent} event."
      },
      "transferFrom(address,address,uint256)": {
        "details": "See {IERC20-transferFrom}. Note that operator and allowance concepts are orthogonal: operators cannot call `transferFrom` (unless they have allowance), and accounts with allowance cannot call `operatorSend` (unless they are operators). Emits {Sent}, {IERC20-Transfer} and {IERC20-Approval} events."
      },
      "transferOwnership(address)": {
        "details": "Transfers ownership of the contract to a new account (`newOwner`). Can only be called by the current owner."
      }
    },
    "version": 1
  },
  "userdoc": {
    "kind": "user",
    "methods": {},
    "version": 1
  }
}